{
  "_format": "hh-sol-artifact-1",
  "contractName": "ProjectRegistry",
  "sourceName": "contracts/ProjectRegistry.sol",
  "abi": [
    {
      "inputs": [
        {
          "internalType": "address",
          "name": "attestationServiceAddress",
          "type": "address"
        }
      ],
      "stateMutability": "nonpayable",
      "type": "constructor"
    },
    {
      "anonymous": false,
      "inputs": [
        {
          "indexed": true,
          "internalType": "uint256",
          "name": "id",
          "type": "uint256"
        },
        {
          "indexed": true,
          "internalType": "address",
          "name": "owner",
          "type": "address"
        },
        {
          "indexed": false,
          "internalType": "string",
          "name": "name",
          "type": "string"
        },
        {
          "indexed": false,
          "internalType": "string",
          "name": "descriptionCID",
          "type": "string"
        },
        {
          "indexed": false,
          "internalType": "string",
          "name": "category",
          "type": "string"
        }
      ],
      "name": "ProjectSubmitted",
      "type": "event"
    },
    {
      "inputs": [],
      "name": "attestationService",
      "outputs": [
        {
          "internalType": "contract IAttestationService",
          "name": "",
          "type": "address"
        }
      ],
      "stateMutability": "view",
      "type": "function"
    },
    {
      "inputs": [],
      "name": "getAllActiveProjects",
      "outputs": [
        {
          "components": [
            {
              "internalType": "uint256",
              "name": "id",
              "type": "uint256"
            },
            {
              "internalType": "address",
              "name": "owner",
              "type": "address"
            },
            {
              "internalType": "string",
              "name": "name",
              "type": "string"
            },
            {
              "internalType": "string",
              "name": "descriptionCID",
              "type": "string"
            },
            {
              "internalType": "string",
              "name": "category",
              "type": "string"
            },
            {
              "internalType": "bool",
              "name": "isActive",
              "type": "bool"
            }
          ],
          "internalType": "struct ProjectRegistry.Project[]",
          "name": "",
          "type": "tuple[]"
        }
      ],
      "stateMutability": "view",
      "type": "function"
    },
    {
      "inputs": [
        {
          "internalType": "uint256",
          "name": "projectId",
          "type": "uint256"
        }
      ],
      "name": "getProject",
      "outputs": [
        {
          "internalType": "uint256",
          "name": "id",
          "type": "uint256"
        },
        {
          "internalType": "address",
          "name": "owner",
          "type": "address"
        },
        {
          "internalType": "string",
          "name": "name",
          "type": "string"
        },
        {
          "internalType": "string",
          "name": "descriptionCID",
          "type": "string"
        },
        {
          "internalType": "string",
          "name": "category",
          "type": "string"
        },
        {
          "internalType": "bool",
          "name": "isActive",
          "type": "bool"
        }
      ],
      "stateMutability": "view",
      "type": "function"
    },
    {
      "inputs": [
        {
          "internalType": "string",
          "name": "name",
          "type": "string"
        },
        {
          "internalType": "string",
          "name": "descriptionCID",
          "type": "string"
        },
        {
          "internalType": "string",
          "name": "category",
          "type": "string"
        }
      ],
      "name": "submitProject",
      "outputs": [],
      "stateMutability": "nonpayable",
      "type": "function"
    }
  ],
  "bytecode": "0x6080604052600180553480156200001557600080fd5b5060405162001a2938038062001a2983398181016040528101906200003b91906200015e565b600073ffffffffffffffffffffffffffffffffffffffff168173ffffffffffffffffffffffffffffffffffffffff1603620000ad576040517f08c379a0000000000000000000000000000000000000000000000000000000008152600401620000a49062000217565b60405180910390fd5b806000806101000a81548173ffffffffffffffffffffffffffffffffffffffff021916908373ffffffffffffffffffffffffffffffffffffffff1602179055505062000239565b600080fd5b600073ffffffffffffffffffffffffffffffffffffffff82169050919050565b60006200012682620000f9565b9050919050565b620001388162000119565b81146200014457600080fd5b50565b60008151905062000158816200012d565b92915050565b600060208284031215620001775762000176620000f4565b5b6000620001878482850162000147565b91505092915050565b600082825260208201905092915050565b7f496e76616c6964206174746573746174696f6e2073657276696365206164647260008201527f6573730000000000000000000000000000000000000000000000000000000000602082015250565b6000620001ff60238362000190565b91506200020c82620001a1565b604082019050919050565b600060208201905081810360008301526200023281620001f0565b9050919050565b6117e080620002496000396000f3fe608060405234801561001057600080fd5b506004361061004c5760003560e01c80632cd0470014610051578063a26cc6051461006f578063f0f3f2c81461008b578063f2ef441b146100c0575b600080fd5b6100596100de565b6040516100669190610b7a565b60405180910390f35b61008960048036038101906100849190610c04565b610102565b005b6100a560048036038101906100a09190610cee565b610534565b6040516100b796959493929190610df6565b60405180910390f35b6100c861079d565b6040516100d5919061103c565b60405180910390f35b60008054906101000a900473ffffffffffffffffffffffffffffffffffffffff1681565b60008054906101000a900473ffffffffffffffffffffffffffffffffffffffff1673ffffffffffffffffffffffffffffffffffffffff1663f7a7c672336040518263ffffffff1660e01b815260040161015b91906110aa565b602060405180830381865afa158015610178573d6000803e3d6000fd5b505050506040513d601f19601f8201168201806040525081019061019c9190611104565b6101db576040517f08c379a00000000000000000000000000000000000000000000000000000000081526004016101d2906111a3565b60405180910390fd5b60008686905011610221576040517f08c379a00000000000000000000000000000000000000000000000000000000081526004016102189061120f565b60405180910390fd5b60008484905011610267576040517f08c379a000000000000000000000000000000000000000000000000000000000815260040161025e9061127b565b60405180910390fd5b600082829050116102ad576040517f08c379a00000000000000000000000000000000000000000000000000000000081526004016102a4906112e7565b60405180910390fd5b6000600160008154809291906102c290611336565b91905055905060006040518060c001604052808381526020013373ffffffffffffffffffffffffffffffffffffffff16815260200189898080601f016020809104026020016040519081016040528093929190818152602001838380828437600081840152601f19601f82011690508083019250505050505050815260200187878080601f016020809104026020016040519081016040528093929190818152602001838380828437600081840152601f19601f82011690508083019250505050505050815260200185858080601f016020809104026020016040519081016040528093929190818152602001838380828437600081840152601f19601f82011690508083019250505050505050815260200160011515815250905080600260008481526020019081526020016000206000820151816000015560208201518160010160006101000a81548173ffffffffffffffffffffffffffffffffffffffff021916908373ffffffffffffffffffffffffffffffffffffffff160217905550604082015181600201908161045891906115af565b50606082015181600301908161046e91906115af565b50608082015181600401908161048491906115af565b5060a08201518160050160006101000a81548160ff02191690831515021790555090505060038290806001815401808255809150506001900390600052602060002001600090919091909150553373ffffffffffffffffffffffffffffffffffffffff16827f5973c931eb77095467b101adf9378ecc0c9f3453903e46abd2ee3a4f8844378f8a8a8a8a8a8a604051610522969594939291906116bd565b60405180910390a35050505050505050565b6000806060806060600080600260008981526020019081526020016000209050600081600001540361059b576040517f08c379a00000000000000000000000000000000000000000000000000000000081526004016105929061175b565b60405180910390fd5b80600001548160010160009054906101000a900473ffffffffffffffffffffffffffffffffffffffff168260020183600301846004018560050160009054906101000a900460ff168380546105ef906113dc565b80601f016020809104026020016040519081016040528092919081815260200182805461061b906113dc565b80156106685780601f1061063d57610100808354040283529160200191610668565b820191906000526020600020905b81548152906001019060200180831161064b57829003601f168201915b5050505050935082805461067b906113dc565b80601f01602080910402602001604051908101604052809291908181526020018280546106a7906113dc565b80156106f45780601f106106c9576101008083540402835291602001916106f4565b820191906000526020600020905b8154815290600101906020018083116106d757829003601f168201915b50505050509250818054610707906113dc565b80601f0160208091040260200160405190810160405280929190818152602001828054610733906113dc565b80156107805780601f1061075557610100808354040283529160200191610780565b820191906000526020600020905b81548152906001019060200180831161076357829003601f168201915b505050505091509650965096509650965096505091939550919395565b60606000600380549050905060008167ffffffffffffffff8111156107c5576107c461137e565b5b6040519080825280602002602001820160405280156107fe57816020015b6107eb610aad565b8152602001906001900390816107e35790505b50905060005b82811015610aa45760026000600383815481106108245761082361177b565b5b906000526020600020015481526020019081526020016000206040518060c0016040529081600082015481526020016001820160009054906101000a900473ffffffffffffffffffffffffffffffffffffffff1673ffffffffffffffffffffffffffffffffffffffff1673ffffffffffffffffffffffffffffffffffffffff1681526020016002820180546108b8906113dc565b80601f01602080910402602001604051908101604052809291908181526020018280546108e4906113dc565b80156109315780601f1061090657610100808354040283529160200191610931565b820191906000526020600020905b81548152906001019060200180831161091457829003601f168201915b5050505050815260200160038201805461094a906113dc565b80601f0160208091040260200160405190810160405280929190818152602001828054610976906113dc565b80156109c35780601f10610998576101008083540402835291602001916109c3565b820191906000526020600020905b8154815290600101906020018083116109a657829003601f168201915b505050505081526020016004820180546109dc906113dc565b80601f0160208091040260200160405190810160405280929190818152602001828054610a08906113dc565b8015610a555780601f10610a2a57610100808354040283529160200191610a55565b820191906000526020600020905b815481529060010190602001808311610a3857829003601f168201915b505050505081526020016005820160009054906101000a900460ff161515151581525050828281518110610a8c57610a8b61177b565b5b60200260200101819052508080600101915050610804565b50809250505090565b6040518060c0016040528060008152602001600073ffffffffffffffffffffffffffffffffffffffff1681526020016060815260200160608152602001606081526020016000151581525090565b600073ffffffffffffffffffffffffffffffffffffffff82169050919050565b6000819050919050565b6000610b40610b3b610b3684610afb565b610b1b565b610afb565b9050919050565b6000610b5282610b25565b9050919050565b6000610b6482610b47565b9050919050565b610b7481610b59565b82525050565b6000602082019050610b8f6000830184610b6b565b92915050565b600080fd5b600080fd5b600080fd5b600080fd5b600080fd5b60008083601f840112610bc457610bc3610b9f565b5b8235905067ffffffffffffffff811115610be157610be0610ba4565b5b602083019150836001820283011115610bfd57610bfc610ba9565b5b9250929050565b60008060008060008060608789031215610c2157610c20610b95565b5b600087013567ffffffffffffffff811115610c3f57610c3e610b9a565b5b610c4b89828a01610bae565b9650965050602087013567ffffffffffffffff811115610c6e57610c6d610b9a565b5b610c7a89828a01610bae565b9450945050604087013567ffffffffffffffff811115610c9d57610c9c610b9a565b5b610ca989828a01610bae565b92509250509295509295509295565b6000819050919050565b610ccb81610cb8565b8114610cd657600080fd5b50565b600081359050610ce881610cc2565b92915050565b600060208284031215610d0457610d03610b95565b5b6000610d1284828501610cd9565b91505092915050565b610d2481610cb8565b82525050565b6000610d3582610afb565b9050919050565b610d4581610d2a565b82525050565b600081519050919050565b600082825260208201905092915050565b60005b83811015610d85578082015181840152602081019050610d6a565b60008484015250505050565b6000601f19601f8301169050919050565b6000610dad82610d4b565b610db78185610d56565b9350610dc7818560208601610d67565b610dd081610d91565b840191505092915050565b60008115159050919050565b610df081610ddb565b82525050565b600060c082019050610e0b6000830189610d1b565b610e186020830188610d3c565b8181036040830152610e2a8187610da2565b90508181036060830152610e3e8186610da2565b90508181036080830152610e528185610da2565b9050610e6160a0830184610de7565b979650505050505050565b600081519050919050565b600082825260208201905092915050565b6000819050602082019050919050565b610ea181610cb8565b82525050565b610eb081610d2a565b82525050565b600082825260208201905092915050565b6000610ed282610d4b565b610edc8185610eb6565b9350610eec818560208601610d67565b610ef581610d91565b840191505092915050565b610f0981610ddb565b82525050565b600060c083016000830151610f276000860182610e98565b506020830151610f3a6020860182610ea7565b5060408301518482036040860152610f528282610ec7565b91505060608301518482036060860152610f6c8282610ec7565b91505060808301518482036080860152610f868282610ec7565b91505060a0830151610f9b60a0860182610f00565b508091505092915050565b6000610fb28383610f0f565b905092915050565b6000602082019050919050565b6000610fd282610e6c565b610fdc8185610e77565b935083602082028501610fee85610e88565b8060005b8581101561102a578484038952815161100b8582610fa6565b945061101683610fba565b925060208a01995050600181019050610ff2565b50829750879550505050505092915050565b600060208201905081810360008301526110568184610fc7565b905092915050565b7f4172746973740000000000000000000000000000000000000000000000000000600082015250565b6000611094600683610d56565b915061109f8261105e565b602082019050919050565b60006040820190506110bf6000830184610d3c565b81810360208301526110d081611087565b905092915050565b6110e181610ddb565b81146110ec57600080fd5b50565b6000815190506110fe816110d8565b92915050565b60006020828403121561111a57611119610b95565b5b6000611128848285016110ef565b91505092915050565b7f4e6f7420617574686f72697a65643a206d75737420686176652027417274697360008201527f7427206174746573746174696f6e000000000000000000000000000000000000602082015250565b600061118d602e83610d56565b915061119882611131565b604082019050919050565b600060208201905081810360008301526111bc81611180565b9050919050565b7f50726f6a656374206e616d652072657175697265640000000000000000000000600082015250565b60006111f9601583610d56565b9150611204826111c3565b602082019050919050565b60006020820190508181036000830152611228816111ec565b9050919050565b7f4465736372697074696f6e204349442072657175697265640000000000000000600082015250565b6000611265601883610d56565b91506112708261122f565b602082019050919050565b6000602082019050818103600083015261129481611258565b9050919050565b7f43617465676f7279207265717569726564000000000000000000000000000000600082015250565b60006112d1601183610d56565b91506112dc8261129b565b602082019050919050565b60006020820190508181036000830152611300816112c4565b9050919050565b7f4e487b7100000000000000000000000000000000000000000000000000000000600052601160045260246000fd5b600061134182610cb8565b91507fffffffffffffffffffffffffffffffffffffffffffffffffffffffffffffffff820361137357611372611307565b5b600182019050919050565b7f4e487b7100000000000000000000000000000000000000000000000000000000600052604160045260246000fd5b7f4e487b7100000000000000000000000000000000000000000000000000000000600052602260045260246000fd5b600060028204905060018216806113f457607f821691505b602082108103611407576114066113ad565b5b50919050565b60008190508160005260206000209050919050565b60006020601f8301049050919050565b600082821b905092915050565b60006008830261146f7fffffffffffffffffffffffffffffffffffffffffffffffffffffffffffffffff82611432565b6114798683611432565b95508019841693508086168417925050509392505050565b60006114ac6114a76114a284610cb8565b610b1b565b610cb8565b9050919050565b6000819050919050565b6114c683611491565b6114da6114d2826114b3565b84845461143f565b825550505050565b600090565b6114ef6114e2565b6114fa8184846114bd565b505050565b5b8181101561151e576115136000826114e7565b600181019050611500565b5050565b601f821115611563576115348161140d565b61153d84611422565b8101602085101561154c578190505b61156061155885611422565b8301826114ff565b50505b505050565b600082821c905092915050565b600061158660001984600802611568565b1980831691505092915050565b600061159f8383611575565b9150826002028217905092915050565b6115b882610d4b565b67ffffffffffffffff8111156115d1576115d061137e565b5b6115db82546113dc565b6115e6828285611522565b600060209050601f8311600181146116195760008415611607578287015190505b6116118582611593565b865550611679565b601f1984166116278661140d565b60005b8281101561164f5784890151825560018201915060208501945060208101905061162a565b8683101561166c5784890151611668601f891682611575565b8355505b6001600288020188555050505b505050505050565b82818337600083830152505050565b600061169c8385610d56565b93506116a9838584611681565b6116b283610d91565b840190509392505050565b600060608201905081810360008301526116d881888a611690565b905081810360208301526116ed818688611690565b90508181036040830152611702818486611690565b9050979650505050505050565b7f50726f6a65637420646f6573206e6f7420657869737400000000000000000000600082015250565b6000611745601683610d56565b91506117508261170f565b602082019050919050565b6000602082019050818103600083015261177481611738565b9050919050565b7f4e487b7100000000000000000000000000000000000000000000000000000000600052603260045260246000fdfea264697066735822122031b50b6e14905daf8c946a12bee97e2d24cb550c43a2870e57f17a4af5a1167964736f6c63430008180033",
  "linkReferences": {},
  "deployedLinkReferences": {}
}