{
  "_format": "hh-sol-artifact-1",
  "contractName": "ProjectRegistry",
  "sourceName": "contracts/ProjectRegistry.sol",
  "abi": [
    {
      "inputs": [
        {
          "internalType": "address",
          "name": "attestationServiceAddress",
          "type": "address"
        }
      ],
      "stateMutability": "nonpayable",
      "type": "constructor"
    },
    {
      "anonymous": false,
      "inputs": [
        {
          "indexed": true,
          "internalType": "uint256",
          "name": "id",
          "type": "uint256"
        },
        {
          "indexed": true,
          "internalType": "address",
          "name": "owner",
          "type": "address"
        },
        {
          "indexed": false,
          "internalType": "string",
          "name": "name",
          "type": "string"
        },
        {
          "indexed": false,
          "internalType": "string",
          "name": "descriptionCID",
          "type": "string"
        },
        {
          "indexed": false,
          "internalType": "string",
          "name": "category",
          "type": "string"
        },
        {
          "indexed": false,
          "internalType": "string[]",
          "name": "imageCIDs",
          "type": "string[]"
        },
        {
          "indexed": false,
          "internalType": "string[]",
          "name": "audioCIDs",
          "type": "string[]"
        }
      ],
      "name": "ProjectSubmitted",
      "type": "event"
    },
    {
      "inputs": [],
      "name": "attestationService",
      "outputs": [
        {
          "internalType": "contract IAttestationService",
          "name": "",
          "type": "address"
        }
      ],
      "stateMutability": "view",
      "type": "function"
    },
    {
      "inputs": [],
      "name": "getAllActiveProjects",
      "outputs": [
        {
          "components": [
            {
              "internalType": "uint256",
              "name": "id",
              "type": "uint256"
            },
            {
              "internalType": "address",
              "name": "owner",
              "type": "address"
            },
            {
              "internalType": "string",
              "name": "name",
              "type": "string"
            },
            {
              "internalType": "string",
              "name": "descriptionCID",
              "type": "string"
            },
            {
              "internalType": "string",
              "name": "category",
              "type": "string"
            },
            {
              "internalType": "bool",
              "name": "isActive",
              "type": "bool"
            },
            {
              "internalType": "string[]",
              "name": "imageCIDs",
              "type": "string[]"
            },
            {
              "internalType": "string[]",
              "name": "audioCIDs",
              "type": "string[]"
            }
          ],
          "internalType": "struct ProjectRegistry.Project[]",
          "name": "",
          "type": "tuple[]"
        }
      ],
      "stateMutability": "view",
      "type": "function"
    },
    {
      "inputs": [
        {
          "internalType": "uint256",
          "name": "projectId",
          "type": "uint256"
        }
      ],
      "name": "getProject",
      "outputs": [
        {
          "internalType": "uint256",
          "name": "id",
          "type": "uint256"
        },
        {
          "internalType": "address",
          "name": "owner",
          "type": "address"
        },
        {
          "internalType": "string",
          "name": "name",
          "type": "string"
        },
        {
          "internalType": "string",
          "name": "descriptionCID",
          "type": "string"
        },
        {
          "internalType": "string",
          "name": "category",
          "type": "string"
        },
        {
          "internalType": "bool",
          "name": "isActive",
          "type": "bool"
        },
        {
          "internalType": "string[]",
          "name": "imageCIDs",
          "type": "string[]"
        },
        {
          "internalType": "string[]",
          "name": "audioCIDs",
          "type": "string[]"
        }
      ],
      "stateMutability": "view",
      "type": "function"
    },
    {
      "inputs": [
        {
          "internalType": "string",
          "name": "name",
          "type": "string"
        },
        {
          "internalType": "string",
          "name": "descriptionCID",
          "type": "string"
        },
        {
          "internalType": "string",
          "name": "category",
          "type": "string"
        },
        {
          "internalType": "string[]",
          "name": "imageCIDs",
          "type": "string[]"
        },
        {
          "internalType": "string[]",
          "name": "audioCIDs",
          "type": "string[]"
        }
      ],
      "name": "submitProject",
      "outputs": [],
      "stateMutability": "nonpayable",
      "type": "function"
    }
  ],
  "bytecode": "0x6080604052600180553480156200001557600080fd5b50604051620024853803806200248583398181016040528101906200003b91906200015e565b600073ffffffffffffffffffffffffffffffffffffffff168173ffffffffffffffffffffffffffffffffffffffff1603620000ad576040517f08c379a0000000000000000000000000000000000000000000000000000000008152600401620000a49062000217565b60405180910390fd5b806000806101000a81548173ffffffffffffffffffffffffffffffffffffffff021916908373ffffffffffffffffffffffffffffffffffffffff1602179055505062000239565b600080fd5b600073ffffffffffffffffffffffffffffffffffffffff82169050919050565b60006200012682620000f9565b9050919050565b620001388162000119565b81146200014457600080fd5b50565b60008151905062000158816200012d565b92915050565b600060208284031215620001775762000176620000f4565b5b6000620001878482850162000147565b91505092915050565b600082825260208201905092915050565b7f496e76616c6964206174746573746174696f6e2073657276696365206164647260008201527f6573730000000000000000000000000000000000000000000000000000000000602082015250565b6000620001ff60238362000190565b91506200020c82620001a1565b604082019050919050565b600060208201905081810360008301526200023281620001f0565b9050919050565b61223c80620002496000396000f3fe608060405234801561001057600080fd5b506004361061004c5760003560e01c80632cd0470014610051578063362e9be21461006f578063f0f3f2c81461008b578063f2ef441b146100c2575b600080fd5b6100596100e0565b604051610066919061103b565b60405180910390f35b61008960048036038101906100849190611125565b610104565b005b6100a560048036038101906100a09190611278565b6105a1565b6040516100b998979695949392919061148c565b60405180910390f35b6100ca6109c2565b6040516100d7919061176e565b60405180910390f35b60008054906101000a900473ffffffffffffffffffffffffffffffffffffffff1681565b60008054906101000a900473ffffffffffffffffffffffffffffffffffffffff1673ffffffffffffffffffffffffffffffffffffffff1663f7a7c672336040518263ffffffff1660e01b815260040161015d91906117dc565b602060405180830381865afa15801561017a573d6000803e3d6000fd5b505050506040513d601f19601f8201168201806040525081019061019e9190611836565b6101dd576040517f08c379a00000000000000000000000000000000000000000000000000000000081526004016101d4906118d5565b60405180910390fd5b60008a8a905011610223576040517f08c379a000000000000000000000000000000000000000000000000000000000815260040161021a90611941565b60405180910390fd5b60008888905011610269576040517f08c379a0000000000000000000000000000000000000000000000000000000008152600401610260906119ad565b60405180910390fd5b600086869050116102af576040517f08c379a00000000000000000000000000000000000000000000000000000000081526004016102a690611a19565b60405180910390fd5b6000600160008154809291906102c490611a68565b91905055905060006040518061010001604052808381526020013373ffffffffffffffffffffffffffffffffffffffff1681526020018d8d8080601f016020809104026020016040519081016040528093929190818152602001838380828437600081840152601f19601f8201169050808301925050505050505081526020018b8b8080601f016020809104026020016040519081016040528093929190818152602001838380828437600081840152601f19601f82011690508083019250505050505050815260200189898080601f016020809104026020016040519081016040528093929190818152602001838380828437600081840152601f19601f8201169050808301925050505050505081526020016001151581526020018787906103ee9190611c93565b81526020018585906104009190611c93565b815250905080600260008481526020019081526020016000206000820151816000015560208201518160010160006101000a81548173ffffffffffffffffffffffffffffffffffffffff021916908373ffffffffffffffffffffffffffffffffffffffff160217905550604082015181600201908161047f9190611eaa565b5060608201518160030190816104959190611eaa565b5060808201518160040190816104ab9190611eaa565b5060a08201518160050160006101000a81548160ff02191690831515021790555060c08201518160060190805190602001906104e8929190610e85565b5060e0820151816007019080519060200190610505929190610e85565b5090505060038290806001815401808255809150506001900390600052602060002001600090919091909150553373ffffffffffffffffffffffffffffffffffffffff16827fc0d3c4ada1b6a872557b2d09ec4e7cab2cb89c56fcd05f379578764d4aacd5a18e8e8e8e8e8e8e8e8e8e60405161058b9a999897969594939291906120eb565b60405180910390a3505050505050505050505050565b600080606080606060006060806000600260008b81526020019081526020016000209050600081600001540361060c576040517f08c379a0000000000000000000000000000000000000000000000000000000008152600401610603906121b7565b60405180910390fd5b80600001548160010160009054906101000a900473ffffffffffffffffffffffffffffffffffffffff168260020183600301846004018560050160009054906101000a900460ff16866006018760070185805461066890611cd7565b80601f016020809104026020016040519081016040528092919081815260200182805461069490611cd7565b80156106e15780601f106106b6576101008083540402835291602001916106e1565b820191906000526020600020905b8154815290600101906020018083116106c457829003601f168201915b505050505095508480546106f490611cd7565b80601f016020809104026020016040519081016040528092919081815260200182805461072090611cd7565b801561076d5780601f106107425761010080835404028352916020019161076d565b820191906000526020600020905b81548152906001019060200180831161075057829003601f168201915b5050505050945083805461078090611cd7565b80601f01602080910402602001604051908101604052809291908181526020018280546107ac90611cd7565b80156107f95780601f106107ce576101008083540402835291602001916107f9565b820191906000526020600020905b8154815290600101906020018083116107dc57829003601f168201915b5050505050935081805480602002602001604051908101604052809291908181526020016000905b828210156108cd57838290600052602060002001805461084090611cd7565b80601f016020809104026020016040519081016040528092919081815260200182805461086c90611cd7565b80156108b95780601f1061088e576101008083540402835291602001916108b9565b820191906000526020600020905b81548152906001019060200180831161089c57829003601f168201915b505050505081526020019060010190610821565b50505050915080805480602002602001604051908101604052809291908181526020016000905b828210156109a057838290600052602060002001805461091390611cd7565b80601f016020809104026020016040519081016040528092919081815260200182805461093f90611cd7565b801561098c5780601f106109615761010080835404028352916020019161098c565b820191906000526020600020905b81548152906001019060200180831161096f57829003601f168201915b5050505050815260200190600101906108f4565b5050505090509850985098509850985098509850985050919395975091939597565b60606000600380549050905060008167ffffffffffffffff8111156109ea576109e9611ab0565b5b604051908082528060200260200182016040528015610a2357816020015b610a10610ede565b815260200190600190039081610a085790505b50905060005b82811015610e7c576002600060038381548110610a4957610a486121d7565b5b9060005260206000200154815260200190815260200160002060405180610100016040529081600082015481526020016001820160009054906101000a900473ffffffffffffffffffffffffffffffffffffffff1673ffffffffffffffffffffffffffffffffffffffff1673ffffffffffffffffffffffffffffffffffffffff168152602001600282018054610ade90611cd7565b80601f0160208091040260200160405190810160405280929190818152602001828054610b0a90611cd7565b8015610b575780601f10610b2c57610100808354040283529160200191610b57565b820191906000526020600020905b815481529060010190602001808311610b3a57829003601f168201915b50505050508152602001600382018054610b7090611cd7565b80601f0160208091040260200160405190810160405280929190818152602001828054610b9c90611cd7565b8015610be95780601f10610bbe57610100808354040283529160200191610be9565b820191906000526020600020905b815481529060010190602001808311610bcc57829003601f168201915b50505050508152602001600482018054610c0290611cd7565b80601f0160208091040260200160405190810160405280929190818152602001828054610c2e90611cd7565b8015610c7b5780601f10610c5057610100808354040283529160200191610c7b565b820191906000526020600020905b815481529060010190602001808311610c5e57829003601f168201915b505050505081526020016005820160009054906101000a900460ff1615151515815260200160068201805480602002602001604051908101604052809291908181526020016000905b82821015610d70578382906000526020600020018054610ce390611cd7565b80601f0160208091040260200160405190810160405280929190818152602001828054610d0f90611cd7565b8015610d5c5780601f10610d3157610100808354040283529160200191610d5c565b820191906000526020600020905b815481529060010190602001808311610d3f57829003601f168201915b505050505081526020019060010190610cc4565b50505050815260200160078201805480602002602001604051908101604052809291908181526020016000905b82821015610e49578382906000526020600020018054610dbc90611cd7565b80601f0160208091040260200160405190810160405280929190818152602001828054610de890611cd7565b8015610e355780601f10610e0a57610100808354040283529160200191610e35565b820191906000526020600020905b815481529060010190602001808311610e1857829003601f168201915b505050505081526020019060010190610d9d565b5050505081525050828281518110610e6457610e636121d7565b5b60200260200101819052508080600101915050610a29565b50809250505090565b828054828255906000526020600020908101928215610ecd579160200282015b82811115610ecc578251829081610ebc9190611eaa565b5091602001919060010190610ea5565b5b509050610eda9190610f3b565b5090565b60405180610100016040528060008152602001600073ffffffffffffffffffffffffffffffffffffffff16815260200160608152602001606081526020016060815260200160001515815260200160608152602001606081525090565b5b80821115610f5b5760008181610f529190610f5f565b50600101610f3c565b5090565b508054610f6b90611cd7565b6000825580601f10610f7d5750610f9c565b601f016020900490600052602060002090810190610f9b9190610f9f565b5b50565b5b80821115610fb8576000816000905550600101610fa0565b5090565b600073ffffffffffffffffffffffffffffffffffffffff82169050919050565b6000819050919050565b6000611001610ffc610ff784610fbc565b610fdc565b610fbc565b9050919050565b600061101382610fe6565b9050919050565b600061102582611008565b9050919050565b6110358161101a565b82525050565b6000602082019050611050600083018461102c565b92915050565b6000604051905090565b600080fd5b600080fd5b600080fd5b600080fd5b600080fd5b60008083601f84011261108f5761108e61106a565b5b8235905067ffffffffffffffff8111156110ac576110ab61106f565b5b6020830191508360018202830111156110c8576110c7611074565b5b9250929050565b60008083601f8401126110e5576110e461106a565b5b8235905067ffffffffffffffff8111156111025761110161106f565b5b60208301915083602082028301111561111e5761111d611074565b5b9250929050565b60008060008060008060008060008060a08b8d03121561114857611147611060565b5b60008b013567ffffffffffffffff81111561116657611165611065565b5b6111728d828e01611079565b9a509a505060208b013567ffffffffffffffff81111561119557611194611065565b5b6111a18d828e01611079565b985098505060408b013567ffffffffffffffff8111156111c4576111c3611065565b5b6111d08d828e01611079565b965096505060608b013567ffffffffffffffff8111156111f3576111f2611065565b5b6111ff8d828e016110cf565b945094505060808b013567ffffffffffffffff81111561122257611221611065565b5b61122e8d828e016110cf565b92509250509295989b9194979a5092959850565b6000819050919050565b61125581611242565b811461126057600080fd5b50565b6000813590506112728161124c565b92915050565b60006020828403121561128e5761128d611060565b5b600061129c84828501611263565b91505092915050565b6112ae81611242565b82525050565b60006112bf82610fbc565b9050919050565b6112cf816112b4565b82525050565b600081519050919050565b600082825260208201905092915050565b60005b8381101561130f5780820151818401526020810190506112f4565b60008484015250505050565b6000601f19601f8301169050919050565b6000611337826112d5565b61134181856112e0565b93506113518185602086016112f1565b61135a8161131b565b840191505092915050565b60008115159050919050565b61137a81611365565b82525050565b600081519050919050565b600082825260208201905092915050565b6000819050602082019050919050565b600082825260208201905092915050565b60006113c8826112d5565b6113d281856113ac565b93506113e28185602086016112f1565b6113eb8161131b565b840191505092915050565b600061140283836113bd565b905092915050565b6000602082019050919050565b600061142282611380565b61142c818561138b565b93508360208202850161143e8561139c565b8060005b8581101561147a578484038952815161145b85826113f6565b94506114668361140a565b925060208a01995050600181019050611442565b50829750879550505050505092915050565b6000610100820190506114a2600083018b6112a5565b6114af602083018a6112c6565b81810360408301526114c1818961132c565b905081810360608301526114d5818861132c565b905081810360808301526114e9818761132c565b90506114f860a0830186611371565b81810360c083015261150a8185611417565b905081810360e083015261151e8184611417565b90509998505050505050505050565b600081519050919050565b600082825260208201905092915050565b6000819050602082019050919050565b61156281611242565b82525050565b611571816112b4565b82525050565b61158081611365565b82525050565b600082825260208201905092915050565b60006115a282611380565b6115ac8185611586565b9350836020820285016115be8561139c565b8060005b858110156115fa57848403895281516115db85826113f6565b94506115e68361140a565b925060208a019950506001810190506115c2565b50829750879550505050505092915050565b6000610100830160008301516116256000860182611559565b5060208301516116386020860182611568565b506040830151848203604086015261165082826113bd565b9150506060830151848203606086015261166a82826113bd565b9150506080830151848203608086015261168482826113bd565b91505060a083015161169960a0860182611577565b5060c083015184820360c08601526116b18282611597565b91505060e083015184820360e08601526116cb8282611597565b9150508091505092915050565b60006116e4838361160c565b905092915050565b6000602082019050919050565b60006117048261152d565b61170e8185611538565b93508360208202850161172085611549565b8060005b8581101561175c578484038952815161173d85826116d8565b9450611748836116ec565b925060208a01995050600181019050611724565b50829750879550505050505092915050565b6000602082019050818103600083015261178881846116f9565b905092915050565b7f4172746973740000000000000000000000000000000000000000000000000000600082015250565b60006117c66006836112e0565b91506117d182611790565b602082019050919050565b60006040820190506117f160008301846112c6565b8181036020830152611802816117b9565b905092915050565b61181381611365565b811461181e57600080fd5b50565b6000815190506118308161180a565b92915050565b60006020828403121561184c5761184b611060565b5b600061185a84828501611821565b91505092915050565b7f4e6f7420617574686f72697a65643a206d75737420686176652027417274697360008201527f7427206174746573746174696f6e000000000000000000000000000000000000602082015250565b60006118bf602e836112e0565b91506118ca82611863565b604082019050919050565b600060208201905081810360008301526118ee816118b2565b9050919050565b7f50726f6a656374206e616d652072657175697265640000000000000000000000600082015250565b600061192b6015836112e0565b9150611936826118f5565b602082019050919050565b6000602082019050818103600083015261195a8161191e565b9050919050565b7f4465736372697074696f6e204349442072657175697265640000000000000000600082015250565b60006119976018836112e0565b91506119a282611961565b602082019050919050565b600060208201905081810360008301526119c68161198a565b9050919050565b7f43617465676f7279207265717569726564000000000000000000000000000000600082015250565b6000611a036011836112e0565b9150611a0e826119cd565b602082019050919050565b60006020820190508181036000830152611a32816119f6565b9050919050565b7f4e487b7100000000000000000000000000000000000000000000000000000000600052601160045260246000fd5b6000611a7382611242565b91507fffffffffffffffffffffffffffffffffffffffffffffffffffffffffffffffff8203611aa557611aa4611a39565b5b600182019050919050565b7f4e487b7100000000000000000000000000000000000000000000000000000000600052604160045260246000fd5b611ae88261131b565b810181811067ffffffffffffffff82111715611b0757611b06611ab0565b5b80604052505050565b6000611b1a611056565b9050611b268282611adf565b919050565b600067ffffffffffffffff821115611b4657611b45611ab0565b5b602082029050602081019050919050565b600080fd5b600067ffffffffffffffff821115611b7757611b76611ab0565b5b611b808261131b565b9050602081019050919050565b82818337600083830152505050565b6000611baf611baa84611b5c565b611b10565b905082815260208101848484011115611bcb57611bca611b57565b5b611bd6848285611b8d565b509392505050565b600082601f830112611bf357611bf261106a565b5b8135611c03848260208601611b9c565b91505092915050565b6000611c1f611c1a84611b2b565b611b10565b90508083825260208201905060208402830185811115611c4257611c41611074565b5b835b81811015611c8957803567ffffffffffffffff811115611c6757611c6661106a565b5b808601611c748982611bde565b85526020850194505050602081019050611c44565b5050509392505050565b6000611ca0368484611c0c565b905092915050565b7f4e487b7100000000000000000000000000000000000000000000000000000000600052602260045260246000fd5b60006002820490506001821680611cef57607f821691505b602082108103611d0257611d01611ca8565b5b50919050565b60008190508160005260206000209050919050565b60006020601f8301049050919050565b600082821b905092915050565b600060088302611d6a7fffffffffffffffffffffffffffffffffffffffffffffffffffffffffffffffff82611d2d565b611d748683611d2d565b95508019841693508086168417925050509392505050565b6000611da7611da2611d9d84611242565b610fdc565b611242565b9050919050565b6000819050919050565b611dc183611d8c565b611dd5611dcd82611dae565b848454611d3a565b825550505050565b600090565b611dea611ddd565b611df5818484611db8565b505050565b5b81811015611e1957611e0e600082611de2565b600181019050611dfb565b5050565b601f821115611e5e57611e2f81611d08565b611e3884611d1d565b81016020851015611e47578190505b611e5b611e5385611d1d565b830182611dfa565b50505b505050565b600082821c905092915050565b6000611e8160001984600802611e63565b1980831691505092915050565b6000611e9a8383611e70565b9150826002028217905092915050565b611eb3826112d5565b67ffffffffffffffff811115611ecc57611ecb611ab0565b5b611ed68254611cd7565b611ee1828285611e1d565b600060209050601f831160018114611f145760008415611f02578287015190505b611f0c8582611e8e565b865550611f74565b601f198416611f2286611d08565b60005b82811015611f4a57848901518255600182019150602085019450602081019050611f25565b86831015611f675784890151611f63601f891682611e70565b8355505b6001600288020188555050505b505050505050565b6000611f8883856112e0565b9350611f95838584611b8d565b611f9e8361131b565b840190509392505050565b6000819050919050565b6000611fbf83856113ac565b9350611fcc838584611b8d565b611fd58361131b565b840190509392505050565b6000611fed848484611fb3565b90509392505050565b600080fd5b600080fd5b600080fd5b6000808335600160200384360303811261202257612021612000565b5b83810192508235915060208301925067ffffffffffffffff82111561204a57612049611ff6565b5b6001820236038313156120605761205f611ffb565b5b509250929050565b6000602082019050919050565b6000612081838561138b565b93508360208402850161209384611fa9565b8060005b878110156120d95784840389526120ae8284612005565b6120b9868284611fe0565b95506120c484612068565b935060208b019a505050600181019050612097565b50829750879450505050509392505050565b600060a0820190508181036000830152612106818c8e611f7c565b9050818103602083015261211b818a8c611f7c565b9050818103604083015261213081888a611f7c565b90508181036060830152612145818688612075565b9050818103608083015261215a818486612075565b90509b9a5050505050505050505050565b7f50726f6a65637420646f6573206e6f7420657869737400000000000000000000600082015250565b60006121a16016836112e0565b91506121ac8261216b565b602082019050919050565b600060208201905081810360008301526121d081612194565b9050919050565b7f4e487b7100000000000000000000000000000000000000000000000000000000600052603260045260246000fdfea2646970667358221220c18445c260a6d00dee519c5d676ff25ac6b78565d1e641c7a14fb3d6bf0da2f864736f6c63430008180033",
  "linkReferences": {},
  "deployedLinkReferences": {}
}