{
  "_format": "hh-sol-artifact-1",
  "contractName": "ProjectRegistry",
  "sourceName": "contracts/ProjectRegistry.sol",
  "abi": [
    {
      "inputs": [
        {
          "internalType": "address",
          "name": "_attestationServiceAddress",
          "type": "address"
        }
      ],
      "stateMutability": "nonpayable",
      "type": "constructor"
    },
    {
      "inputs": [
        {
          "internalType": "address",
          "name": "owner",
          "type": "address"
        }
      ],
      "name": "OwnableInvalidOwner",
      "type": "error"
    },
    {
      "inputs": [
        {
          "internalType": "address",
          "name": "account",
          "type": "address"
        }
      ],
      "name": "OwnableUnauthorizedAccount",
      "type": "error"
    },
    {
      "anonymous": false,
      "inputs": [
        {
          "indexed": true,
          "internalType": "address",
          "name": "previousOwner",
          "type": "address"
        },
        {
          "indexed": true,
          "internalType": "address",
          "name": "newOwner",
          "type": "address"
        }
      ],
      "name": "OwnershipTransferred",
      "type": "event"
    },
    {
      "anonymous": false,
      "inputs": [
        {
          "indexed": true,
          "internalType": "uint256",
          "name": "projectId",
          "type": "uint256"
        },
        {
          "indexed": true,
          "internalType": "address",
          "name": "owner",
          "type": "address"
        },
        {
          "indexed": false,
          "internalType": "string",
          "name": "name",
          "type": "string"
        },
        {
          "indexed": false,
          "internalType": "string",
          "name": "category",
          "type": "string"
        },
        {
          "indexed": false,
          "internalType": "string",
          "name": "descriptionCID",
          "type": "string"
        },
        {
          "indexed": false,
          "internalType": "string[]",
          "name": "imageCIDs",
          "type": "string[]"
        },
        {
          "indexed": false,
          "internalType": "string[]",
          "name": "audioCIDs",
          "type": "string[]"
        },
        {
          "indexed": false,
          "internalType": "uint256",
          "name": "timestamp",
          "type": "uint256"
        }
      ],
      "name": "ProjectSubmitted",
      "type": "event"
    },
    {
      "anonymous": false,
      "inputs": [
        {
          "indexed": true,
          "internalType": "uint256",
          "name": "projectId",
          "type": "uint256"
        },
        {
          "indexed": true,
          "internalType": "address",
          "name": "updater",
          "type": "address"
        },
        {
          "indexed": false,
          "internalType": "uint256",
          "name": "timestamp",
          "type": "uint256"
        },
        {
          "indexed": false,
          "internalType": "string",
          "name": "message",
          "type": "string"
        }
      ],
      "name": "ProjectUpdatePosted",
      "type": "event"
    },
    {
      "inputs": [],
      "name": "attestationService",
      "outputs": [
        {
          "internalType": "contract IAttestationService",
          "name": "",
          "type": "address"
        }
      ],
      "stateMutability": "view",
      "type": "function"
    },
    {
      "inputs": [
        {
          "internalType": "uint256",
          "name": "_projectId",
          "type": "uint256"
        }
      ],
      "name": "deactivateProject",
      "outputs": [],
      "stateMutability": "nonpayable",
      "type": "function"
    },
    {
      "inputs": [],
      "name": "getAllActiveProjects",
      "outputs": [
        {
          "components": [
            {
              "internalType": "uint256",
              "name": "id",
              "type": "uint256"
            },
            {
              "internalType": "address payable",
              "name": "owner",
              "type": "address"
            },
            {
              "internalType": "string",
              "name": "name",
              "type": "string"
            },
            {
              "internalType": "string",
              "name": "descriptionCID",
              "type": "string"
            },
            {
              "internalType": "string",
              "name": "category",
              "type": "string"
            },
            {
              "internalType": "string[]",
              "name": "imageCIDs",
              "type": "string[]"
            },
            {
              "internalType": "string[]",
              "name": "audioCIDs",
              "type": "string[]"
            },
            {
              "internalType": "bool",
              "name": "isActive",
              "type": "bool"
            },
            {
              "internalType": "uint256",
              "name": "timestamp",
              "type": "uint256"
            }
          ],
          "internalType": "struct Project[]",
          "name": "",
          "type": "tuple[]"
        }
      ],
      "stateMutability": "view",
      "type": "function"
    },
    {
      "inputs": [
        {
          "internalType": "uint256",
          "name": "_projectId",
          "type": "uint256"
        }
      ],
      "name": "getProject",
      "outputs": [
        {
          "internalType": "uint256",
          "name": "id",
          "type": "uint256"
        },
        {
          "internalType": "address",
          "name": "owner",
          "type": "address"
        },
        {
          "internalType": "string",
          "name": "name",
          "type": "string"
        },
        {
          "internalType": "string",
          "name": "descriptionCID",
          "type": "string"
        },
        {
          "internalType": "string",
          "name": "category",
          "type": "string"
        },
        {
          "internalType": "string[]",
          "name": "imageCIDs",
          "type": "string[]"
        },
        {
          "internalType": "string[]",
          "name": "audioCIDs",
          "type": "string[]"
        },
        {
          "internalType": "bool",
          "name": "isActive",
          "type": "bool"
        },
        {
          "internalType": "uint256",
          "name": "timestamp",
          "type": "uint256"
        }
      ],
      "stateMutability": "view",
      "type": "function"
    },
    {
      "inputs": [
        {
          "internalType": "uint256",
          "name": "_projectId",
          "type": "uint256"
        }
      ],
      "name": "getProjectUpdates",
      "outputs": [
        {
          "components": [
            {
              "internalType": "uint256",
              "name": "timestamp",
              "type": "uint256"
            },
            {
              "internalType": "string",
              "name": "message",
              "type": "string"
            },
            {
              "internalType": "string[]",
              "name": "mediaCIDs",
              "type": "string[]"
            }
          ],
          "internalType": "struct ProjectUpdate[]",
          "name": "",
          "type": "tuple[]"
        }
      ],
      "stateMutability": "view",
      "type": "function"
    },
    {
      "inputs": [],
      "name": "nextProjectId",
      "outputs": [
        {
          "internalType": "uint256",
          "name": "",
          "type": "uint256"
        }
      ],
      "stateMutability": "view",
      "type": "function"
    },
    {
      "inputs": [],
      "name": "owner",
      "outputs": [
        {
          "internalType": "address",
          "name": "",
          "type": "address"
        }
      ],
      "stateMutability": "view",
      "type": "function"
    },
    {
      "inputs": [
        {
          "internalType": "address",
          "name": "",
          "type": "address"
        },
        {
          "internalType": "uint256",
          "name": "",
          "type": "uint256"
        }
      ],
      "name": "ownerProjects",
      "outputs": [
        {
          "internalType": "uint256",
          "name": "",
          "type": "uint256"
        }
      ],
      "stateMutability": "view",
      "type": "function"
    },
    {
      "inputs": [
        {
          "internalType": "uint256",
          "name": "_projectId",
          "type": "uint256"
        },
        {
          "internalType": "string",
          "name": "_message",
          "type": "string"
        },
        {
          "internalType": "string[]",
          "name": "_mediaCIDs",
          "type": "string[]"
        }
      ],
      "name": "postProjectUpdate",
      "outputs": [],
      "stateMutability": "nonpayable",
      "type": "function"
    },
    {
      "inputs": [
        {
          "internalType": "uint256",
          "name": "",
          "type": "uint256"
        },
        {
          "internalType": "uint256",
          "name": "",
          "type": "uint256"
        }
      ],
      "name": "projectUpdates",
      "outputs": [
        {
          "internalType": "uint256",
          "name": "timestamp",
          "type": "uint256"
        },
        {
          "internalType": "string",
          "name": "message",
          "type": "string"
        }
      ],
      "stateMutability": "view",
      "type": "function"
    },
    {
      "inputs": [
        {
          "internalType": "uint256",
          "name": "",
          "type": "uint256"
        }
      ],
      "name": "projects",
      "outputs": [
        {
          "internalType": "uint256",
          "name": "id",
          "type": "uint256"
        },
        {
          "internalType": "address payable",
          "name": "owner",
          "type": "address"
        },
        {
          "internalType": "string",
          "name": "name",
          "type": "string"
        },
        {
          "internalType": "string",
          "name": "descriptionCID",
          "type": "string"
        },
        {
          "internalType": "string",
          "name": "category",
          "type": "string"
        },
        {
          "internalType": "bool",
          "name": "isActive",
          "type": "bool"
        },
        {
          "internalType": "uint256",
          "name": "timestamp",
          "type": "uint256"
        }
      ],
      "stateMutability": "view",
      "type": "function"
    },
    {
      "inputs": [],
      "name": "renounceOwnership",
      "outputs": [],
      "stateMutability": "nonpayable",
      "type": "function"
    },
    {
      "inputs": [
        {
          "internalType": "string",
          "name": "_name",
          "type": "string"
        },
        {
          "internalType": "string",
          "name": "_descriptionCID",
          "type": "string"
        },
        {
          "internalType": "string",
          "name": "_category",
          "type": "string"
        },
        {
          "internalType": "string[]",
          "name": "_imageCIDs",
          "type": "string[]"
        },
        {
          "internalType": "string[]",
          "name": "_audioCIDs",
          "type": "string[]"
        }
      ],
      "name": "submitProject",
      "outputs": [],
      "stateMutability": "nonpayable",
      "type": "function"
    },
    {
      "inputs": [
        {
          "internalType": "address",
          "name": "newOwner",
          "type": "address"
        }
      ],
      "name": "transferOwnership",
      "outputs": [],
      "stateMutability": "nonpayable",
      "type": "function"
    }
  ],
  "bytecode": "0x60806040523480156200001157600080fd5b5060405162003605380380620036058339818101604052810190620000379190620002af565b33600073ffffffffffffffffffffffffffffffffffffffff168173ffffffffffffffffffffffffffffffffffffffff1603620000ad5760006040517f1e4fbdf7000000000000000000000000000000000000000000000000000000008152600401620000a49190620002f2565b60405180910390fd5b620000be816200018160201b60201c565b50600073ffffffffffffffffffffffffffffffffffffffff168173ffffffffffffffffffffffffffffffffffffffff160362000131576040517f08c379a0000000000000000000000000000000000000000000000000000000008152600401620001289062000396565b60405180910390fd5b80600560006101000a81548173ffffffffffffffffffffffffffffffffffffffff021916908373ffffffffffffffffffffffffffffffffffffffff160217905550600060018190555050620003b8565b60008060009054906101000a900473ffffffffffffffffffffffffffffffffffffffff169050816000806101000a81548173ffffffffffffffffffffffffffffffffffffffff021916908373ffffffffffffffffffffffffffffffffffffffff1602179055508173ffffffffffffffffffffffffffffffffffffffff168173ffffffffffffffffffffffffffffffffffffffff167f8be0079c531659141344cd1fd0a4f28419497f9722a3daafe3b4186f6b6457e060405160405180910390a35050565b600080fd5b600073ffffffffffffffffffffffffffffffffffffffff82169050919050565b600062000277826200024a565b9050919050565b62000289816200026a565b81146200029557600080fd5b50565b600081519050620002a9816200027e565b92915050565b600060208284031215620002c857620002c762000245565b5b6000620002d88482850162000298565b91505092915050565b620002ec816200026a565b82525050565b6000602082019050620003096000830184620002e1565b92915050565b600082825260208201905092915050565b7f4174746573746174696f6e5365727669636520616464726573732063616e6e6f60008201527f74206265207a65726f0000000000000000000000000000000000000000000000602082015250565b60006200037e6029836200030f565b91506200038b8262000320565b604082019050919050565b60006020820190508181036000830152620003b1816200036f565b9050919050565b61323d80620003c86000396000f3fe608060405234801561001057600080fd5b50600436106100ea5760003560e01c806377dde5261161008c578063e935b7b111610066578063e935b7b114610250578063f0f3f2c81461026e578063f2ef441b146102a6578063f2fde38b146102c4576100ea565b806377dde526146101e657806383a038af146102165780638da5cb5b14610232576100ea565b8063362e9be2116100c8578063362e9be214610174578063436e6958146101905780635c9f3572146101ac578063715018a6146101dc576100ea565b8063107046bd146100ef5780632cd0470014610125578063323cbf8814610143575b600080fd5b61010960048036038101906101049190611ce8565b6102e0565b60405161011c9796959493929190611e10565b60405180910390f35b61012d6104e7565b60405161013a9190611ef3565b60405180910390f35b61015d60048036038101906101589190611f0e565b61050d565b60405161016b929190611f4e565b60405180910390f35b61018e60048036038101906101899190612199565b6105d6565b005b6101aa60048036038101906101a59190611ce8565b6109ca565b005b6101c660048036038101906101c19190611ce8565b610b05565b6040516101d391906124d4565b60405180910390f35b6101e4610d44565b005b61020060048036038101906101fb9190612534565b610d58565b60405161020d9190612574565b60405180910390f35b610230600480360381019061022b919061258f565b610d89565b005b61023a610fb7565b6040516102479190612629565b60405180910390f35b610258610fe0565b6040516102659190612574565b60405180910390f35b61028860048036038101906102839190611ce8565b610fe6565b60405161029d999897969594939291906126ca565b60405180910390f35b6102ae611410565b6040516102bb919061293b565b60405180910390f35b6102de60048036038101906102d9919061295d565b611987565b005b60026020528060005260406000206000915090508060000154908060010160009054906101000a900473ffffffffffffffffffffffffffffffffffffffff169080600201805461032f906129b9565b80601f016020809104026020016040519081016040528092919081815260200182805461035b906129b9565b80156103a85780601f1061037d576101008083540402835291602001916103a8565b820191906000526020600020905b81548152906001019060200180831161038b57829003601f168201915b5050505050908060030180546103bd906129b9565b80601f01602080910402602001604051908101604052809291908181526020018280546103e9906129b9565b80156104365780601f1061040b57610100808354040283529160200191610436565b820191906000526020600020905b81548152906001019060200180831161041957829003601f168201915b50505050509080600401805461044b906129b9565b80601f0160208091040260200160405190810160405280929190818152602001828054610477906129b9565b80156104c45780601f10610499576101008083540402835291602001916104c4565b820191906000526020600020905b8154815290600101906020018083116104a757829003601f168201915b5050505050908060070160009054906101000a900460ff16908060080154905087565b600560009054906101000a900473ffffffffffffffffffffffffffffffffffffffff1681565b6004602052816000526040600020818154811061052957600080fd5b906000526020600020906003020160009150915050806000015490806001018054610553906129b9565b80601f016020809104026020016040519081016040528092919081815260200182805461057f906129b9565b80156105cc5780601f106105a1576101008083540402835291602001916105cc565b820191906000526020600020905b8154815290600101906020018083116105af57829003601f168201915b5050505050905082565b600560009054906101000a900473ffffffffffffffffffffffffffffffffffffffff1673ffffffffffffffffffffffffffffffffffffffff1663f7a7c672336040518263ffffffff1660e01b81526004016106319190612a36565b602060405180830381865afa15801561064e573d6000803e3d6000fd5b505050506040513d601f19601f820116820180604052508101906106729190612a90565b6106b1576040517f08c379a00000000000000000000000000000000000000000000000000000000081526004016106a890612b2f565b60405180910390fd5b60008551116106f5576040517f08c379a00000000000000000000000000000000000000000000000000000000081526004016106ec90612b9b565b60405180910390fd5b6000845111610739576040517f08c379a000000000000000000000000000000000000000000000000000000000815260040161073090612c07565b60405180910390fd5b600083511161077d576040517f08c379a000000000000000000000000000000000000000000000000000000000815260040161077490612c73565b60405180910390fd5b600060015490506001600081548092919061079790612cc2565b91905055506040518061012001604052808281526020013373ffffffffffffffffffffffffffffffffffffffff16815260200187815260200186815260200185815260200184815260200183815260200160011515815260200142815250600260008381526020019081526020016000206000820151816000015560208201518160010160006101000a81548173ffffffffffffffffffffffffffffffffffffffff021916908373ffffffffffffffffffffffffffffffffffffffff160217905550604082015181600201908161086e9190612eac565b5060608201518160030190816108849190612eac565b50608082015181600401908161089a9190612eac565b5060a08201518160050190805190602001906108b7929190611b60565b5060c08201518160060190805190602001906108d4929190611b60565b5060e08201518160070160006101000a81548160ff0219169083151502179055506101008201518160080155905050600360003373ffffffffffffffffffffffffffffffffffffffff1673ffffffffffffffffffffffffffffffffffffffff1681526020019081526020016000208190806001815401808255809150506001900390600052602060002001600090919091909150553373ffffffffffffffffffffffffffffffffffffffff16817f3da254bd09987b28bcc38b3a98a2f0551af19e9f6065071eff40a9de493e9f4d8887898888426040516109ba96959493929190612f7e565b60405180910390a3505050505050565b803373ffffffffffffffffffffffffffffffffffffffff166002600083815260200190815260200160002060010160009054906101000a900473ffffffffffffffffffffffffffffffffffffffff1673ffffffffffffffffffffffffffffffffffffffff1614610a6f576040517f08c379a0000000000000000000000000000000000000000000000000000000008152600401610a6690613074565b60405180910390fd5b6002600083815260200190815260200160002060070160009054906101000a900460ff16610ad2576040517f08c379a0000000000000000000000000000000000000000000000000000000008152600401610ac9906130e0565b60405180910390fd5b60006002600084815260200190815260200160002060070160006101000a81548160ff0219169083151502179055505050565b606081600260008481526020019081526020016000206000015414610b5f576040517f08c379a0000000000000000000000000000000000000000000000000000000008152600401610b569061314c565b60405180910390fd5b60046000838152602001908152602001600020805480602002602001604051908101604052809291908181526020016000905b82821015610d39578382906000526020600020906003020160405180606001604052908160008201548152602001600182018054610bcf906129b9565b80601f0160208091040260200160405190810160405280929190818152602001828054610bfb906129b9565b8015610c485780601f10610c1d57610100808354040283529160200191610c48565b820191906000526020600020905b815481529060010190602001808311610c2b57829003601f168201915b5050505050815260200160028201805480602002602001604051908101604052809291908181526020016000905b82821015610d22578382906000526020600020018054610c95906129b9565b80601f0160208091040260200160405190810160405280929190818152602001828054610cc1906129b9565b8015610d0e5780601f10610ce357610100808354040283529160200191610d0e565b820191906000526020600020905b815481529060010190602001808311610cf157829003601f168201915b505050505081526020019060010190610c76565b505050508152505081526020019060010190610b92565b505050509050919050565b610d4c611a0d565b610d566000611a94565b565b60036020528160005260406000208181548110610d7457600080fd5b90600052602060002001600091509150505481565b823373ffffffffffffffffffffffffffffffffffffffff166002600083815260200190815260200160002060010160009054906101000a900473ffffffffffffffffffffffffffffffffffffffff1673ffffffffffffffffffffffffffffffffffffffff1614610e2e576040517f08c379a0000000000000000000000000000000000000000000000000000000008152600401610e2590613074565b60405180910390fd5b6000835111610e72576040517f08c379a0000000000000000000000000000000000000000000000000000000008152600401610e69906131b8565b60405180910390fd5b83600260008681526020019081526020016000206000015414610eca576040517f08c379a0000000000000000000000000000000000000000000000000000000008152600401610ec19061314c565b60405180910390fd5b600460008581526020019081526020016000206040518060600160405280428152602001858152602001848152509080600181540180825580915050600190039060005260206000209060030201600090919091909150600082015181600001556020820151816001019081610f409190612eac565b506040820151816002019080519060200190610f5d929190611b60565b5050503373ffffffffffffffffffffffffffffffffffffffff16847ffc8c97c99415d245f44dacdf87400521748198b7c936c73d800e9087b25e80414286604051610fa9929190611f4e565b60405180910390a350505050565b60008060009054906101000a900473ffffffffffffffffffffffffffffffffffffffff16905090565b60015481565b60008060608060608060606000806000600260008c815260200190815260200160002090508a816000015414611051576040517f08c379a00000000000000000000000000000000000000000000000000000000081526004016110489061314c565b60405180910390fd5b80600001548160010160009054906101000a900473ffffffffffffffffffffffffffffffffffffffff1682600201836003018460040185600501866006018760070160009054906101000a900460ff1688600801548680546110b2906129b9565b80601f01602080910402602001604051908101604052809291908181526020018280546110de906129b9565b801561112b5780601f106111005761010080835404028352916020019161112b565b820191906000526020600020905b81548152906001019060200180831161110e57829003601f168201915b5050505050965085805461113e906129b9565b80601f016020809104026020016040519081016040528092919081815260200182805461116a906129b9565b80156111b75780601f1061118c576101008083540402835291602001916111b7565b820191906000526020600020905b81548152906001019060200180831161119a57829003601f168201915b505050505095508480546111ca906129b9565b80601f01602080910402602001604051908101604052809291908181526020018280546111f6906129b9565b80156112435780601f1061121857610100808354040283529160200191611243565b820191906000526020600020905b81548152906001019060200180831161122657829003601f168201915b5050505050945083805480602002602001604051908101604052809291908181526020016000905b8282101561131757838290600052602060002001805461128a906129b9565b80601f01602080910402602001604051908101604052809291908181526020018280546112b6906129b9565b80156113035780601f106112d857610100808354040283529160200191611303565b820191906000526020600020905b8154815290600101906020018083116112e657829003601f168201915b50505050508152602001906001019061126b565b50505050935082805480602002602001604051908101604052809291908181526020016000905b828210156113ea57838290600052602060002001805461135d906129b9565b80601f0160208091040260200160405190810160405280929190818152602001828054611389906129b9565b80156113d65780601f106113ab576101008083540402835291602001916113d6565b820191906000526020600020905b8154815290600101906020018083116113b957829003601f168201915b50505050508152602001906001019061133e565b505050509250995099509950995099509950995099509950509193959799909294969850565b60606000805b6001548110156114865780600260008381526020019081526020016000206000015414801561146557506002600082815260200190815260200160002060070160009054906101000a900460ff165b1561147957818061147590612cc2565b9250505b8080600101915050611416565b5060008167ffffffffffffffff8111156114a3576114a2611f88565b5b6040519080825280602002602001820160405280156114dc57816020015b6114c9611bb9565b8152602001906001900390816114c15790505b5090506000805b60015481101561197d5780600260008381526020019081526020016000206000015414801561153257506002600082815260200190815260200160002060070160009054906101000a900460ff165b15611970576002600082815260200190815260200160002060405180610120016040529081600082015481526020016001820160009054906101000a900473ffffffffffffffffffffffffffffffffffffffff1673ffffffffffffffffffffffffffffffffffffffff1673ffffffffffffffffffffffffffffffffffffffff1681526020016002820180546115c6906129b9565b80601f01602080910402602001604051908101604052809291908181526020018280546115f2906129b9565b801561163f5780601f106116145761010080835404028352916020019161163f565b820191906000526020600020905b81548152906001019060200180831161162257829003601f168201915b50505050508152602001600382018054611658906129b9565b80601f0160208091040260200160405190810160405280929190818152602001828054611684906129b9565b80156116d15780601f106116a6576101008083540402835291602001916116d1565b820191906000526020600020905b8154815290600101906020018083116116b457829003601f168201915b505050505081526020016004820180546116ea906129b9565b80601f0160208091040260200160405190810160405280929190818152602001828054611716906129b9565b80156117635780601f1061173857610100808354040283529160200191611763565b820191906000526020600020905b81548152906001019060200180831161174657829003601f168201915b5050505050815260200160058201805480602002602001604051908101604052809291908181526020016000905b8282101561183d5783829060005260206000200180546117b0906129b9565b80601f01602080910402602001604051908101604052809291908181526020018280546117dc906129b9565b80156118295780601f106117fe57610100808354040283529160200191611829565b820191906000526020600020905b81548152906001019060200180831161180c57829003601f168201915b505050505081526020019060010190611791565b50505050815260200160068201805480602002602001604051908101604052809291908181526020016000905b82821015611916578382906000526020600020018054611889906129b9565b80601f01602080910402602001604051908101604052809291908181526020018280546118b5906129b9565b80156119025780601f106118d757610100808354040283529160200191611902565b820191906000526020600020905b8154815290600101906020018083116118e557829003601f168201915b50505050508152602001906001019061186a565b5050505081526020016007820160009054906101000a900460ff16151515158152602001600882015481525050838381518110611956576119556131d8565b5b6020026020010181905250818061196c90612cc2565b9250505b80806001019150506114e3565b5081935050505090565b61198f611a0d565b600073ffffffffffffffffffffffffffffffffffffffff168173ffffffffffffffffffffffffffffffffffffffff1603611a015760006040517f1e4fbdf70000000000000000000000000000000000000000000000000000000081526004016119f89190612629565b60405180910390fd5b611a0a81611a94565b50565b611a15611b58565b73ffffffffffffffffffffffffffffffffffffffff16611a33610fb7565b73ffffffffffffffffffffffffffffffffffffffff1614611a9257611a56611b58565b6040517f118cdaa7000000000000000000000000000000000000000000000000000000008152600401611a899190612629565b60405180910390fd5b565b60008060009054906101000a900473ffffffffffffffffffffffffffffffffffffffff169050816000806101000a81548173ffffffffffffffffffffffffffffffffffffffff021916908373ffffffffffffffffffffffffffffffffffffffff1602179055508173ffffffffffffffffffffffffffffffffffffffff168173ffffffffffffffffffffffffffffffffffffffff167f8be0079c531659141344cd1fd0a4f28419497f9722a3daafe3b4186f6b6457e060405160405180910390a35050565b600033905090565b828054828255906000526020600020908101928215611ba8579160200282015b82811115611ba7578251829081611b979190612eac565b5091602001919060010190611b80565b5b509050611bb59190611c1d565b5090565b60405180610120016040528060008152602001600073ffffffffffffffffffffffffffffffffffffffff1681526020016060815260200160608152602001606081526020016060815260200160608152602001600015158152602001600081525090565b5b80821115611c3d5760008181611c349190611c41565b50600101611c1e565b5090565b508054611c4d906129b9565b6000825580601f10611c5f5750611c7e565b601f016020900490600052602060002090810190611c7d9190611c81565b5b50565b5b80821115611c9a576000816000905550600101611c82565b5090565b6000604051905090565b600080fd5b600080fd5b6000819050919050565b611cc581611cb2565b8114611cd057600080fd5b50565b600081359050611ce281611cbc565b92915050565b600060208284031215611cfe57611cfd611ca8565b5b6000611d0c84828501611cd3565b91505092915050565b611d1e81611cb2565b82525050565b600073ffffffffffffffffffffffffffffffffffffffff82169050919050565b6000611d4f82611d24565b9050919050565b611d5f81611d44565b82525050565b600081519050919050565b600082825260208201905092915050565b60005b83811015611d9f578082015181840152602081019050611d84565b60008484015250505050565b6000601f19601f8301169050919050565b6000611dc782611d65565b611dd18185611d70565b9350611de1818560208601611d81565b611dea81611dab565b840191505092915050565b60008115159050919050565b611e0a81611df5565b82525050565b600060e082019050611e25600083018a611d15565b611e326020830189611d56565b8181036040830152611e448188611dbc565b90508181036060830152611e588187611dbc565b90508181036080830152611e6c8186611dbc565b9050611e7b60a0830185611e01565b611e8860c0830184611d15565b98975050505050505050565b6000819050919050565b6000611eb9611eb4611eaf84611d24565b611e94565b611d24565b9050919050565b6000611ecb82611e9e565b9050919050565b6000611edd82611ec0565b9050919050565b611eed81611ed2565b82525050565b6000602082019050611f086000830184611ee4565b92915050565b60008060408385031215611f2557611f24611ca8565b5b6000611f3385828601611cd3565b9250506020611f4485828601611cd3565b9150509250929050565b6000604082019050611f636000830185611d15565b8181036020830152611f758184611dbc565b90509392505050565b600080fd5b600080fd5b7f4e487b7100000000000000000000000000000000000000000000000000000000600052604160045260246000fd5b611fc082611dab565b810181811067ffffffffffffffff82111715611fdf57611fde611f88565b5b80604052505050565b6000611ff2611c9e565b9050611ffe8282611fb7565b919050565b600067ffffffffffffffff82111561201e5761201d611f88565b5b61202782611dab565b9050602081019050919050565b82818337600083830152505050565b600061205661205184612003565b611fe8565b90508281526020810184848401111561207257612071611f83565b5b61207d848285612034565b509392505050565b600082601f83011261209a57612099611f7e565b5b81356120aa848260208601612043565b91505092915050565b600067ffffffffffffffff8211156120ce576120cd611f88565b5b602082029050602081019050919050565b600080fd5b60006120f76120f2846120b3565b611fe8565b9050808382526020820190506020840283018581111561211a576121196120df565b5b835b8181101561216157803567ffffffffffffffff81111561213f5761213e611f7e565b5b80860161214c8982612085565b8552602085019450505060208101905061211c565b5050509392505050565b600082601f8301126121805761217f611f7e565b5b81356121908482602086016120e4565b91505092915050565b600080600080600060a086880312156121b5576121b4611ca8565b5b600086013567ffffffffffffffff8111156121d3576121d2611cad565b5b6121df88828901612085565b955050602086013567ffffffffffffffff811115612200576121ff611cad565b5b61220c88828901612085565b945050604086013567ffffffffffffffff81111561222d5761222c611cad565b5b61223988828901612085565b935050606086013567ffffffffffffffff81111561225a57612259611cad565b5b6122668882890161216b565b925050608086013567ffffffffffffffff81111561228757612286611cad565b5b6122938882890161216b565b9150509295509295909350565b600081519050919050565b600082825260208201905092915050565b6000819050602082019050919050565b6122d581611cb2565b82525050565b600082825260208201905092915050565b60006122f782611d65565b61230181856122db565b9350612311818560208601611d81565b61231a81611dab565b840191505092915050565b600081519050919050565b600082825260208201905092915050565b6000819050602082019050919050565b600061235d83836122ec565b905092915050565b6000602082019050919050565b600061237d82612325565b6123878185612330565b93508360208202850161239985612341565b8060005b858110156123d557848403895281516123b68582612351565b94506123c183612365565b925060208a0199505060018101905061239d565b50829750879550505050505092915050565b60006060830160008301516123ff60008601826122cc565b506020830151848203602086015261241782826122ec565b915050604083015184820360408601526124318282612372565b9150508091505092915050565b600061244a83836123e7565b905092915050565b6000602082019050919050565b600061246a826122a0565b61247481856122ab565b935083602082028501612486856122bc565b8060005b858110156124c257848403895281516124a3858261243e565b94506124ae83612452565b925060208a0199505060018101905061248a565b50829750879550505050505092915050565b600060208201905081810360008301526124ee818461245f565b905092915050565b600061250182611d24565b9050919050565b612511816124f6565b811461251c57600080fd5b50565b60008135905061252e81612508565b92915050565b6000806040838503121561254b5761254a611ca8565b5b60006125598582860161251f565b925050602061256a85828601611cd3565b9150509250929050565b60006020820190506125896000830184611d15565b92915050565b6000806000606084860312156125a8576125a7611ca8565b5b60006125b686828701611cd3565b935050602084013567ffffffffffffffff8111156125d7576125d6611cad565b5b6125e386828701612085565b925050604084013567ffffffffffffffff81111561260457612603611cad565b5b6126108682870161216b565b9150509250925092565b612623816124f6565b82525050565b600060208201905061263e600083018461261a565b92915050565b600082825260208201905092915050565b600061266082612325565b61266a8185612644565b93508360208202850161267c85612341565b8060005b858110156126b857848403895281516126998582612351565b94506126a483612365565b925060208a01995050600181019050612680565b50829750879550505050505092915050565b6000610120820190506126e0600083018c611d15565b6126ed602083018b61261a565b81810360408301526126ff818a611dbc565b905081810360608301526127138189611dbc565b905081810360808301526127278188611dbc565b905081810360a083015261273b8187612655565b905081810360c083015261274f8186612655565b905061275e60e0830185611e01565b61276c610100830184611d15565b9a9950505050505050505050565b600081519050919050565b600082825260208201905092915050565b6000819050602082019050919050565b6127af81611d44565b82525050565b6127be81611df5565b82525050565b6000610120830160008301516127dd60008601826122cc565b5060208301516127f060208601826127a6565b506040830151848203604086015261280882826122ec565b9150506060830151848203606086015261282282826122ec565b9150506080830151848203608086015261283c82826122ec565b91505060a083015184820360a08601526128568282612372565b91505060c083015184820360c08601526128708282612372565b91505060e083015161288560e08601826127b5565b5061010083015161289a6101008601826122cc565b508091505092915050565b60006128b183836127c4565b905092915050565b6000602082019050919050565b60006128d18261277a565b6128db8185612785565b9350836020820285016128ed85612796565b8060005b85811015612929578484038952815161290a85826128a5565b9450612915836128b9565b925060208a019950506001810190506128f1565b50829750879550505050505092915050565b6000602082019050818103600083015261295581846128c6565b905092915050565b60006020828403121561297357612972611ca8565b5b60006129818482850161251f565b91505092915050565b7f4e487b7100000000000000000000000000000000000000000000000000000000600052602260045260246000fd5b600060028204905060018216806129d157607f821691505b6020821081036129e4576129e361298a565b5b50919050565b7f4172746973740000000000000000000000000000000000000000000000000000600082015250565b6000612a20600683611d70565b9150612a2b826129ea565b602082019050919050565b6000604082019050612a4b600083018461261a565b8181036020830152612a5c81612a13565b905092915050565b612a6d81611df5565b8114612a7857600080fd5b50565b600081519050612a8a81612a64565b92915050565b600060208284031215612aa657612aa5611ca8565b5b6000612ab484828501612a7b565b91505092915050565b7f4e6f7420617574686f72697a65643a206d75737420686176652027417274697360008201527f7427206174746573746174696f6e000000000000000000000000000000000000602082015250565b6000612b19602e83611d70565b9150612b2482612abd565b604082019050919050565b60006020820190508181036000830152612b4881612b0c565b9050919050565b7f50726f6a656374206e616d652063616e6e6f7420626520656d70747900000000600082015250565b6000612b85601c83611d70565b9150612b9082612b4f565b602082019050919050565b60006020820190508181036000830152612bb481612b78565b9050919050565b7f4465736372697074696f6e204349442063616e6e6f7420626520656d70747900600082015250565b6000612bf1601f83611d70565b9150612bfc82612bbb565b602082019050919050565b60006020820190508181036000830152612c2081612be4565b9050919050565b7f43617465676f72792063616e6e6f7420626520656d7074790000000000000000600082015250565b6000612c5d601883611d70565b9150612c6882612c27565b602082019050919050565b60006020820190508181036000830152612c8c81612c50565b9050919050565b7f4e487b7100000000000000000000000000000000000000000000000000000000600052601160045260246000fd5b6000612ccd82611cb2565b91507fffffffffffffffffffffffffffffffffffffffffffffffffffffffffffffffff8203612cff57612cfe612c93565b5b600182019050919050565b60008190508160005260206000209050919050565b60006020601f8301049050919050565b600082821b905092915050565b600060088302612d6c7fffffffffffffffffffffffffffffffffffffffffffffffffffffffffffffffff82612d2f565b612d768683612d2f565b95508019841693508086168417925050509392505050565b6000612da9612da4612d9f84611cb2565b611e94565b611cb2565b9050919050565b6000819050919050565b612dc383612d8e565b612dd7612dcf82612db0565b848454612d3c565b825550505050565b600090565b612dec612ddf565b612df7818484612dba565b505050565b5b81811015612e1b57612e10600082612de4565b600181019050612dfd565b5050565b601f821115612e6057612e3181612d0a565b612e3a84612d1f565b81016020851015612e49578190505b612e5d612e5585612d1f565b830182612dfc565b50505b505050565b600082821c905092915050565b6000612e8360001984600802612e65565b1980831691505092915050565b6000612e9c8383612e72565b9150826002028217905092915050565b612eb582611d65565b67ffffffffffffffff811115612ece57612ecd611f88565b5b612ed882546129b9565b612ee3828285612e1f565b600060209050601f831160018114612f165760008415612f04578287015190505b612f0e8582612e90565b865550612f76565b601f198416612f2486612d0a565b60005b82811015612f4c57848901518255600182019150602085019450602081019050612f27565b86831015612f695784890151612f65601f891682612e72565b8355505b6001600288020188555050505b505050505050565b600060c0820190508181036000830152612f988189611dbc565b90508181036020830152612fac8188611dbc565b90508181036040830152612fc08187611dbc565b90508181036060830152612fd48186612655565b90508181036080830152612fe88185612655565b9050612ff760a0830184611d15565b979650505050505050565b7f4e6f7420617574686f72697a65643a206f6e6c792070726f6a656374206f776e60008201527f65722063616e20706572666f726d207468697320616374696f6e000000000000602082015250565b600061305e603a83611d70565b915061306982613002565b604082019050919050565b6000602082019050818103600083015261308d81613051565b9050919050565b7f50726f6a65637420697320616c726561647920696e6163746976650000000000600082015250565b60006130ca601b83611d70565b91506130d582613094565b602082019050919050565b600060208201905081810360008301526130f9816130bd565b9050919050565b7f50726f6a65637420646f6573206e6f7420657869737400000000000000000000600082015250565b6000613136601683611d70565b915061314182613100565b602082019050919050565b6000602082019050818103600083015261316581613129565b9050919050565b7f557064617465206d6573736167652063616e6e6f7420626520656d7074790000600082015250565b60006131a2601e83611d70565b91506131ad8261316c565b602082019050919050565b600060208201905081810360008301526131d181613195565b9050919050565b7f4e487b7100000000000000000000000000000000000000000000000000000000600052603260045260246000fdfea26469706673582212205f05cef153cf93193b5eecb7a367234a0fedc97ee78f6c7e4b0f28c54a628b3a64736f6c63430008180033",
  "linkReferences": {},
  "deployedLinkReferences": {}
}