{
  "_format": "hh-sol-artifact-1",
  "contractName": "QuadraticFunding",
  "sourceName": "contracts/QuadraticFunding.sol",
  "abi": [
    {
      "inputs": [
        {
          "internalType": "address",
          "name": "_projectRegistry",
          "type": "address"
        },
        {
          "internalType": "address",
          "name": "_cUSD",
          "type": "address"
        }
      ],
      "stateMutability": "nonpayable",
      "type": "constructor"
    },
    {
      "inputs": [
        {
          "internalType": "address",
          "name": "owner",
          "type": "address"
        }
      ],
      "name": "OwnableInvalidOwner",
      "type": "error"
    },
    {
      "inputs": [
        {
          "internalType": "address",
          "name": "account",
          "type": "address"
        }
      ],
      "name": "OwnableUnauthorizedAccount",
      "type": "error"
    },
    {
      "anonymous": false,
      "inputs": [
        {
          "indexed": true,
          "internalType": "address",
          "name": "contributor",
          "type": "address"
        },
        {
          "indexed": true,
          "internalType": "uint256",
          "name": "projectId",
          "type": "uint256"
        },
        {
          "indexed": false,
          "internalType": "uint256",
          "name": "amount",
          "type": "uint256"
        }
      ],
      "name": "ContributionMade",
      "type": "event"
    },
    {
      "anonymous": false,
      "inputs": [
        {
          "indexed": false,
          "internalType": "uint256",
          "name": "totalMatching",
          "type": "uint256"
        },
        {
          "indexed": false,
          "internalType": "uint256",
          "name": "numProjects",
          "type": "uint256"
        }
      ],
      "name": "MatchingFundsDistributed",
      "type": "event"
    },
    {
      "anonymous": false,
      "inputs": [
        {
          "indexed": true,
          "internalType": "address",
          "name": "previousOwner",
          "type": "address"
        },
        {
          "indexed": true,
          "internalType": "address",
          "name": "newOwner",
          "type": "address"
        }
      ],
      "name": "OwnershipTransferred",
      "type": "event"
    },
    {
      "inputs": [],
      "name": "cUSD",
      "outputs": [
        {
          "internalType": "contract IERC20",
          "name": "",
          "type": "address"
        }
      ],
      "stateMutability": "view",
      "type": "function"
    },
    {
      "inputs": [
        {
          "internalType": "uint256",
          "name": "_projectId",
          "type": "uint256"
        },
        {
          "internalType": "uint256",
          "name": "_amount",
          "type": "uint256"
        }
      ],
      "name": "contribute",
      "outputs": [],
      "stateMutability": "nonpayable",
      "type": "function"
    },
    {
      "inputs": [],
      "name": "depositMatchingFunds",
      "outputs": [],
      "stateMutability": "payable",
      "type": "function"
    },
    {
      "inputs": [],
      "name": "distributeMatchingFunds",
      "outputs": [],
      "stateMutability": "nonpayable",
      "type": "function"
    },
    {
      "inputs": [],
      "name": "endRound",
      "outputs": [],
      "stateMutability": "nonpayable",
      "type": "function"
    },
    {
      "inputs": [],
      "name": "getActiveProjectIds",
      "outputs": [
        {
          "internalType": "uint256[]",
          "name": "",
          "type": "uint256[]"
        }
      ],
      "stateMutability": "view",
      "type": "function"
    },
    {
      "inputs": [
        {
          "internalType": "uint256",
          "name": "_projectId",
          "type": "uint256"
        },
        {
          "internalType": "address",
          "name": "_user",
          "type": "address"
        }
      ],
      "name": "getContributorAmount",
      "outputs": [
        {
          "internalType": "uint256",
          "name": "",
          "type": "uint256"
        }
      ],
      "stateMutability": "view",
      "type": "function"
    },
    {
      "inputs": [
        {
          "internalType": "uint256",
          "name": "_projectId",
          "type": "uint256"
        }
      ],
      "name": "getProjectStats",
      "outputs": [
        {
          "internalType": "uint256",
          "name": "totalContributions",
          "type": "uint256"
        },
        {
          "internalType": "uint256",
          "name": "numUniqueContributors",
          "type": "uint256"
        },
        {
          "internalType": "uint256",
          "name": "sumSqrtContributions",
          "type": "uint256"
        }
      ],
      "stateMutability": "view",
      "type": "function"
    },
    {
      "inputs": [],
      "name": "matchingPool",
      "outputs": [
        {
          "internalType": "uint256",
          "name": "",
          "type": "uint256"
        }
      ],
      "stateMutability": "view",
      "type": "function"
    },
    {
      "inputs": [],
      "name": "owner",
      "outputs": [
        {
          "internalType": "address",
          "name": "",
          "type": "address"
        }
      ],
      "stateMutability": "view",
      "type": "function"
    },
    {
      "inputs": [],
      "name": "projectRegistry",
      "outputs": [
        {
          "internalType": "contract IProjectRegistry",
          "name": "",
          "type": "address"
        }
      ],
      "stateMutability": "view",
      "type": "function"
    },
    {
      "inputs": [],
      "name": "renounceOwnership",
      "outputs": [],
      "stateMutability": "nonpayable",
      "type": "function"
    },
    {
      "inputs": [],
      "name": "roundActive",
      "outputs": [
        {
          "internalType": "bool",
          "name": "",
          "type": "bool"
        }
      ],
      "stateMutability": "view",
      "type": "function"
    },
    {
      "inputs": [],
      "name": "roundNumber",
      "outputs": [
        {
          "internalType": "uint256",
          "name": "",
          "type": "uint256"
        }
      ],
      "stateMutability": "view",
      "type": "function"
    },
    {
      "inputs": [],
      "name": "startRound",
      "outputs": [],
      "stateMutability": "nonpayable",
      "type": "function"
    },
    {
      "inputs": [
        {
          "internalType": "address",
          "name": "newOwner",
          "type": "address"
        }
      ],
      "name": "transferOwnership",
      "outputs": [],
      "stateMutability": "nonpayable",
      "type": "function"
    },
    {
      "stateMutability": "payable",
      "type": "receive"
    }
  ],
  "bytecode": "0x60c06040523480156200001157600080fd5b506040516200294c3803806200294c833981810160405281019062000037919062000341565b33600073ffffffffffffffffffffffffffffffffffffffff168173ffffffffffffffffffffffffffffffffffffffff1603620000ad5760006040517f1e4fbdf7000000000000000000000000000000000000000000000000000000008152600401620000a4919062000399565b60405180910390fd5b620000be816200021360201b60201c565b50600073ffffffffffffffffffffffffffffffffffffffff168273ffffffffffffffffffffffffffffffffffffffff160362000131576040517f08c379a0000000000000000000000000000000000000000000000000000000008152600401620001289062000417565b60405180910390fd5b600073ffffffffffffffffffffffffffffffffffffffff168173ffffffffffffffffffffffffffffffffffffffff1603620001a3576040517f08c379a00000000000000000000000000000000000000000000000000000000081526004016200019a9062000489565b60405180910390fd5b8173ffffffffffffffffffffffffffffffffffffffff1660a08173ffffffffffffffffffffffffffffffffffffffff16815250508073ffffffffffffffffffffffffffffffffffffffff1660808173ffffffffffffffffffffffffffffffffffffffff16815250505050620004ab565b60008060009054906101000a900473ffffffffffffffffffffffffffffffffffffffff169050816000806101000a81548173ffffffffffffffffffffffffffffffffffffffff021916908373ffffffffffffffffffffffffffffffffffffffff1602179055508173ffffffffffffffffffffffffffffffffffffffff168173ffffffffffffffffffffffffffffffffffffffff167f8be0079c531659141344cd1fd0a4f28419497f9722a3daafe3b4186f6b6457e060405160405180910390a35050565b600080fd5b600073ffffffffffffffffffffffffffffffffffffffff82169050919050565b60006200030982620002dc565b9050919050565b6200031b81620002fc565b81146200032757600080fd5b50565b6000815190506200033b8162000310565b92915050565b600080604083850312156200035b576200035a620002d7565b5b60006200036b858286016200032a565b92505060206200037e858286016200032a565b9150509250929050565b6200039381620002fc565b82525050565b6000602082019050620003b0600083018462000388565b92915050565b600082825260208201905092915050565b7f496e76616c696420726567697374727900000000000000000000000000000000600082015250565b6000620003ff601083620003b6565b91506200040c82620003c7565b602082019050919050565b600060208201905081810360008301526200043281620003f0565b9050919050565b7f496e76616c696420635553440000000000000000000000000000000000000000600082015250565b600062000471600c83620003b6565b91506200047e8262000439565b602082019050919050565b60006020820190508181036000830152620004a48162000462565b9050919050565b60805160a05161245f620004ed600039600081816104390152818161060f0152610dbe015260008181610379015281816107010152610fd7015261245f6000f3fe6080604052600436106100f75760003560e01c8063749aa2d91161008a578063aacef18b11610059578063aacef18b146102ef578063d5ac7ba11461031a578063dbc6c7c214610331578063f2fde38b1461033b576100fe565b8063749aa2d9146102595780638c590917146102705780638da5cb5b14610299578063a07943f4146102c4576100fe565b80635a33d8dc116100c65780635a33d8dc1461019b57806361c47cc9146101c657806364ca28b514610203578063715018a614610242576100fe565b8063027471b0146101035780631fccf6721461012e5780634e2786fb1461015957806355e3f08614610184576100fe565b366100fe57005b600080fd5b34801561010f57600080fd5b50610118610364565b604051610125919061164e565b60405180910390f35b34801561013a57600080fd5b50610143610377565b60405161015091906116e8565b60405180910390f35b34801561016557600080fd5b5061016e61039b565b60405161017b919061171c565b60405180910390f35b34801561019057600080fd5b506101996103a1565b005b3480156101a757600080fd5b506101b0610437565b6040516101bd9190611758565b60405180910390f35b3480156101d257600080fd5b506101ed60048036038101906101e891906117f1565b61045b565b6040516101fa919061171c565b60405180910390f35b34801561020f57600080fd5b5061022a60048036038101906102259190611831565b6104b9565b6040516102399392919061185e565b60405180910390f35b34801561024e57600080fd5b506102576104f1565b005b34801561026557600080fd5b5061026e610505565b005b34801561027c57600080fd5b5061029760048036038101906102929190611895565b610578565b005b3480156102a557600080fd5b506102ae610b4e565b6040516102bb91906118e4565b60405180910390f35b3480156102d057600080fd5b506102d9610b77565b6040516102e691906119bd565b60405180910390f35b3480156102fb57600080fd5b50610304610bcf565b604051610311919061171c565b60405180910390f35b34801561032657600080fd5b5061032f610bd5565b005b610339611128565b005b34801561034757600080fd5b50610362600480360381019061035d91906119df565b6111dd565b005b600060149054906101000a900460ff1681565b7f000000000000000000000000000000000000000000000000000000000000000081565b60015481565b6103a9611263565b600060149054906101000a900460ff16156103f9576040517f08c379a00000000000000000000000000000000000000000000000000000000081526004016103f090611a69565b60405180910390fd5b6001600060146101000a81548160ff02191690831515021790555060018060008282546104269190611ab8565b925050819055506000600281905550565b7f000000000000000000000000000000000000000000000000000000000000000081565b60006003600084815260200190815260200160002060030160008373ffffffffffffffffffffffffffffffffffffffff1673ffffffffffffffffffffffffffffffffffffffff16815260200190815260200160002054905092915050565b600080600080600360008681526020019081526020016000209050806000015481600101548260020154935093509350509193909250565b6104f9611263565b61050360006112ea565b565b61050d611263565b600060149054906101000a900460ff1661055c576040517f08c379a000000000000000000000000000000000000000000000000000000000815260040161055390611b38565b60405180910390fd5b60008060146101000a81548160ff021916908315150217905550565b600060149054906101000a900460ff166105c7576040517f08c379a00000000000000000000000000000000000000000000000000000000081526004016105be90611ba4565b60405180910390fd5b6000811161060a576040517f08c379a000000000000000000000000000000000000000000000000000000000815260040161060190611c10565b60405180910390fd5b6000807f000000000000000000000000000000000000000000000000000000000000000073ffffffffffffffffffffffffffffffffffffffff1663f0f3f2c8856040518263ffffffff1660e01b8152600401610666919061171c565b600060405180830381865afa158015610683573d6000803e3d6000fd5b505050506040513d6000823e3d601f19601f820116820180604052508101906106ac9190611de7565b955050505050915083821480156106c05750805b6106ff576040517f08c379a00000000000000000000000000000000000000000000000000000000081526004016106f690611f14565b60405180910390fd5b7f000000000000000000000000000000000000000000000000000000000000000073ffffffffffffffffffffffffffffffffffffffff166323b872dd3330866040518463ffffffff1660e01b815260040161075c93929190611f34565b6020604051808303816000875af115801561077b573d6000803e3d6000fd5b505050506040513d601f19601f8201168201806040525081019061079f9190611f6b565b6107de576040517f08c379a00000000000000000000000000000000000000000000000000000000081526004016107d590611fe4565b60405180910390fd5b60006003600086815260200190815260200160002090508060040160003373ffffffffffffffffffffffffffffffffffffffff1673ffffffffffffffffffffffffffffffffffffffff16815260200190815260200160002060009054906101000a900460ff166109245760018160040160003373ffffffffffffffffffffffffffffffffffffffff1673ffffffffffffffffffffffffffffffffffffffff16815260200190815260200160002060006101000a81548160ff02191690831515021790555060018160010160008282546108b79190611ab8565b9250508190555080600501339080600181540180825580915050600190039060005260206000200160009091909190916101000a81548173ffffffffffffffffffffffffffffffffffffffff021916908373ffffffffffffffffffffffffffffffffffffffff1602179055505b838160030160003373ffffffffffffffffffffffffffffffffffffffff1673ffffffffffffffffffffffffffffffffffffffff16815260200190815260200160002060008282546109759190611ab8565b92505081905550838160000160008282546109909190611ab8565b9250508190555060006109ee858360030160003373ffffffffffffffffffffffffffffffffffffffff1673ffffffffffffffffffffffffffffffffffffffff168152602001908152602001600020546109e99190612004565b6113ae565b90506000610a3c8360030160003373ffffffffffffffffffffffffffffffffffffffff1673ffffffffffffffffffffffffffffffffffffffff168152602001908152602001600020546113ae565b905081836002015410610a715780828460020154610a5a9190612004565b610a649190611ab8565b8360020181905550610a7b565b8083600201819055505b6005600088815260200190815260200160002060009054906101000a900460ff16610af657600487908060018154018082558091505060019003906000526020600020016000909190919091505560016005600089815260200190815260200160002060006101000a81548160ff0219169083151502179055505b863373ffffffffffffffffffffffffffffffffffffffff167f5dc1fe5ab986a852c4eda8e8bb94247d13307065c593fb83f1a09be27367938288604051610b3d919061171c565b60405180910390a350505050505050565b60008060009054906101000a900473ffffffffffffffffffffffffffffffffffffffff16905090565b60606004805480602002602001604051908101604052809291908181526020018280548015610bc557602002820191906000526020600020905b815481526020019060010190808311610bb1575b5050505050905090565b60025481565b610bdd611263565b600060149054906101000a900460ff1615610c2d576040517f08c379a0000000000000000000000000000000000000000000000000000000008152600401610c2490612084565b60405180910390fd5b600060025411610c72576040517f08c379a0000000000000000000000000000000000000000000000000000000008152600401610c69906120f0565b60405180910390fd5b600080600480549050905060008167ffffffffffffffff811115610c9957610c98611c75565b5b604051908082528060200260200182016040528015610cc75781602001602082028036833780820191505090505b50905060005b82811015610d7457600060048281548110610ceb57610cea612110565b5b9060005260206000200154905060006003600083815260200190815260200160002090506000633b9aca0082600201548360020154610d2a919061213f565b610d3491906121b0565b905080858581518110610d4a57610d49612110565b5b6020026020010181815250508087610d629190611ab8565b96505050508080600101915050610ccd565b5060005b828110156110d157600060048281548110610d9657610d95612110565b5b90600052602060002001549050600060036000838152602001908152602001600020905060007f000000000000000000000000000000000000000000000000000000000000000073ffffffffffffffffffffffffffffffffffffffff1663f0f3f2c8846040518263ffffffff1660e01b8152600401610e15919061171c565b600060405180830381865afa158015610e32573d6000803e3d6000fd5b505050506040513d6000823e3d601f19601f82011682018060405250810190610e5b9190611de7565b50505050915050600073ffffffffffffffffffffffffffffffffffffffff168173ffffffffffffffffffffffffffffffffffffffff1603610ed1576040517f08c379a0000000000000000000000000000000000000000000000000000000008152600401610ec89061222d565b60405180910390fd5b600080881115610f115787868681518110610eef57610eee612110565b5b6020026020010151600254610f04919061213f565b610f0e91906121b0565b90505b6000811115610fc85760008273ffffffffffffffffffffffffffffffffffffffff1682604051610f409061227e565b60006040518083038185875af1925050503d8060008114610f7d576040519150601f19603f3d011682016040523d82523d6000602084013e610f82565b606091505b5050905080610fc6576040517f08c379a0000000000000000000000000000000000000000000000000000000008152600401610fbd906122df565b60405180910390fd5b505b6000836000015411156110b7577f000000000000000000000000000000000000000000000000000000000000000073ffffffffffffffffffffffffffffffffffffffff1663a9059cbb8385600001546040518363ffffffff1660e01b81526004016110349291906122ff565b6020604051808303816000875af1158015611053573d6000803e3d6000fd5b505050506040513d601f19601f820116820180604052508101906110779190611f6b565b6110b6576040517f08c379a00000000000000000000000000000000000000000000000000000000081526004016110ad90611fe4565b60405180910390fd5b5b6110c084611450565b505050508080600101915050610d78565b50600460006110e091906115d4565b60006002819055507f3d3281532e0ea35d260b22336bdb50a0450065093edeaaa2bddaf6b9d17a18516002548360405161111b929190612328565b60405180910390a1505050565b611130611263565b600060149054906101000a900460ff1661117f576040517f08c379a00000000000000000000000000000000000000000000000000000000081526004016111769061239d565b60405180910390fd5b600034116111c2576040517f08c379a00000000000000000000000000000000000000000000000000000000081526004016111b990612409565b60405180910390fd5b34600260008282546111d49190611ab8565b92505081905550565b6111e5611263565b600073ffffffffffffffffffffffffffffffffffffffff168173ffffffffffffffffffffffffffffffffffffffff16036112575760006040517f1e4fbdf700000000000000000000000000000000000000000000000000000000815260040161124e91906118e4565b60405180910390fd5b611260816112ea565b50565b61126b6115cc565b73ffffffffffffffffffffffffffffffffffffffff16611289610b4e565b73ffffffffffffffffffffffffffffffffffffffff16146112e8576112ac6115cc565b6040517f118cdaa70000000000000000000000000000000000000000000000000000000081526004016112df91906118e4565b60405180910390fd5b565b60008060009054906101000a900473ffffffffffffffffffffffffffffffffffffffff169050816000806101000a81548173ffffffffffffffffffffffffffffffffffffffff021916908373ffffffffffffffffffffffffffffffffffffffff1602179055508173ffffffffffffffffffffffffffffffffffffffff168173ffffffffffffffffffffffffffffffffffffffff167f8be0079c531659141344cd1fd0a4f28419497f9722a3daafe3b4186f6b6457e060405160405180910390a35050565b60008082036113c0576000905061144b565b600060026001633b9aca00856113d6919061213f565b6113e09190611ab8565b6113ea91906121b0565b90506000633b9aca00846113fe919061213f565b90505b808210156114455781905060028283633b9aca0087611420919061213f565b61142a91906121b0565b6114349190611ab8565b61143e91906121b0565b9150611401565b80925050505b919050565b600060036000838152602001908152602001600020905060005b816005018054905081101561156d57600082600501828154811061149157611490612110565b5b9060005260206000200160009054906101000a900473ffffffffffffffffffffffffffffffffffffffff16905060008360030160008373ffffffffffffffffffffffffffffffffffffffff1673ffffffffffffffffffffffffffffffffffffffff1681526020019081526020016000208190555060008360040160008373ffffffffffffffffffffffffffffffffffffffff1673ffffffffffffffffffffffffffffffffffffffff16815260200190815260200160002060006101000a81548160ff02191690831515021790555050808060010191505061146a565b5080600501600061157e91906115f5565b60008160000181905550600081600101819055506000816002018190555060006005600084815260200190815260200160002060006101000a81548160ff0219169083151502179055505050565b600033905090565b50805460008255906000526020600020908101906115f29190611616565b50565b50805460008255906000526020600020908101906116139190611616565b50565b5b8082111561162f576000816000905550600101611617565b5090565b60008115159050919050565b61164881611633565b82525050565b6000602082019050611663600083018461163f565b92915050565b600073ffffffffffffffffffffffffffffffffffffffff82169050919050565b6000819050919050565b60006116ae6116a96116a484611669565b611689565b611669565b9050919050565b60006116c082611693565b9050919050565b60006116d2826116b5565b9050919050565b6116e2816116c7565b82525050565b60006020820190506116fd60008301846116d9565b92915050565b6000819050919050565b61171681611703565b82525050565b6000602082019050611731600083018461170d565b92915050565b6000611742826116b5565b9050919050565b61175281611737565b82525050565b600060208201905061176d6000830184611749565b92915050565b6000604051905090565b600080fd5b600080fd5b61179081611703565b811461179b57600080fd5b50565b6000813590506117ad81611787565b92915050565b60006117be82611669565b9050919050565b6117ce816117b3565b81146117d957600080fd5b50565b6000813590506117eb816117c5565b92915050565b600080604083850312156118085761180761177d565b5b60006118168582860161179e565b9250506020611827858286016117dc565b9150509250929050565b6000602082840312156118475761184661177d565b5b60006118558482850161179e565b91505092915050565b6000606082019050611873600083018661170d565b611880602083018561170d565b61188d604083018461170d565b949350505050565b600080604083850312156118ac576118ab61177d565b5b60006118ba8582860161179e565b92505060206118cb8582860161179e565b9150509250929050565b6118de816117b3565b82525050565b60006020820190506118f960008301846118d5565b92915050565b600081519050919050565b600082825260208201905092915050565b6000819050602082019050919050565b61193481611703565b82525050565b6000611946838361192b565b60208301905092915050565b6000602082019050919050565b600061196a826118ff565b611974818561190a565b935061197f8361191b565b8060005b838110156119b0578151611997888261193a565b97506119a283611952565b925050600181019050611983565b5085935050505092915050565b600060208201905081810360008301526119d7818461195f565b905092915050565b6000602082840312156119f5576119f461177d565b5b6000611a03848285016117dc565b91505092915050565b600082825260208201905092915050565b7f526f756e6420616c726561647920616374697665000000000000000000000000600082015250565b6000611a53601483611a0c565b9150611a5e82611a1d565b602082019050919050565b60006020820190508181036000830152611a8281611a46565b9050919050565b7f4e487b7100000000000000000000000000000000000000000000000000000000600052601160045260246000fd5b6000611ac382611703565b9150611ace83611703565b9250828201905080821115611ae657611ae5611a89565b5b92915050565b7f4e6f2061637469766520726f756e640000000000000000000000000000000000600082015250565b6000611b22600f83611a0c565b9150611b2d82611aec565b602082019050919050565b60006020820190508181036000830152611b5181611b15565b9050919050565b7f46756e64696e6720726f756e64206e6f74206163746976650000000000000000600082015250565b6000611b8e601883611a0c565b9150611b9982611b58565b602082019050919050565b60006020820190508181036000830152611bbd81611b81565b9050919050565b7f416d6f756e74206d757374206265203e20300000000000000000000000000000600082015250565b6000611bfa601283611a0c565b9150611c0582611bc4565b602082019050919050565b60006020820190508181036000830152611c2981611bed565b9050919050565b600081519050611c3f81611787565b92915050565b600081519050611c54816117c5565b92915050565b600080fd5b600080fd5b6000601f19601f8301169050919050565b7f4e487b7100000000000000000000000000000000000000000000000000000000600052604160045260246000fd5b611cad82611c64565b810181811067ffffffffffffffff82111715611ccc57611ccb611c75565b5b80604052505050565b6000611cdf611773565b9050611ceb8282611ca4565b919050565b600067ffffffffffffffff821115611d0b57611d0a611c75565b5b611d1482611c64565b9050602081019050919050565b60005b83811015611d3f578082015181840152602081019050611d24565b60008484015250505050565b6000611d5e611d5984611cf0565b611cd5565b905082815260208101848484011115611d7a57611d79611c5f565b5b611d85848285611d21565b509392505050565b600082601f830112611da257611da1611c5a565b5b8151611db2848260208601611d4b565b91505092915050565b611dc481611633565b8114611dcf57600080fd5b50565b600081519050611de181611dbb565b92915050565b60008060008060008060c08789031215611e0457611e0361177d565b5b6000611e1289828a01611c30565b9650506020611e2389828a01611c45565b955050604087015167ffffffffffffffff811115611e4457611e43611782565b5b611e5089828a01611d8d565b945050606087015167ffffffffffffffff811115611e7157611e70611782565b5b611e7d89828a01611d8d565b935050608087015167ffffffffffffffff811115611e9e57611e9d611782565b5b611eaa89828a01611d8d565b92505060a0611ebb89828a01611dd2565b9150509295509295509295565b7f496e76616c6964206f7220696e6163746976652070726f6a6563740000000000600082015250565b6000611efe601b83611a0c565b9150611f0982611ec8565b602082019050919050565b60006020820190508181036000830152611f2d81611ef1565b9050919050565b6000606082019050611f4960008301866118d5565b611f5660208301856118d5565b611f63604083018461170d565b949350505050565b600060208284031215611f8157611f8061177d565b5b6000611f8f84828501611dd2565b91505092915050565b7f63555344207472616e73666572206661696c6564000000000000000000000000600082015250565b6000611fce601483611a0c565b9150611fd982611f98565b602082019050919050565b60006020820190508181036000830152611ffd81611fc1565b9050919050565b600061200f82611703565b915061201a83611703565b925082820390508181111561203257612031611a89565b5b92915050565b7f526f756e64207374696c6c206163746976650000000000000000000000000000600082015250565b600061206e601283611a0c565b915061207982612038565b602082019050919050565b6000602082019050818103600083015261209d81612061565b9050919050565b7f4e6f206d61746368696e672066756e6473000000000000000000000000000000600082015250565b60006120da601183611a0c565b91506120e5826120a4565b602082019050919050565b60006020820190508181036000830152612109816120cd565b9050919050565b7f4e487b7100000000000000000000000000000000000000000000000000000000600052603260045260246000fd5b600061214a82611703565b915061215583611703565b925082820261216381611703565b9150828204841483151761217a57612179611a89565b5b5092915050565b7f4e487b7100000000000000000000000000000000000000000000000000000000600052601260045260246000fd5b60006121bb82611703565b91506121c683611703565b9250826121d6576121d5612181565b5b828204905092915050565b7f50726f6a656374206f776e6572206e6f7420666f756e64000000000000000000600082015250565b6000612217601783611a0c565b9150612222826121e1565b602082019050919050565b600060208201905081810360008301526122468161220a565b9050919050565b600081905092915050565b50565b600061226860008361224d565b915061227382612258565b600082019050919050565b60006122898261225b565b9150819050919050565b7f43454c4f207472616e73666572206661696c6564000000000000000000000000600082015250565b60006122c9601483611a0c565b91506122d482612293565b602082019050919050565b600060208201905081810360008301526122f8816122bc565b9050919050565b600060408201905061231460008301856118d5565b612321602083018461170d565b9392505050565b600060408201905061233d600083018561170d565b61234a602083018461170d565b9392505050565b7f526f756e64206e6f742061637469766500000000000000000000000000000000600082015250565b6000612387601083611a0c565b915061239282612351565b602082019050919050565b600060208201905081810360008301526123b68161237a565b9050919050565b7f4e6f2043454c4f2073656e740000000000000000000000000000000000000000600082015250565b60006123f3600c83611a0c565b91506123fe826123bd565b602082019050919050565b60006020820190508181036000830152612422816123e6565b905091905056fea2646970667358221220a09cde2b089562ef04e466d9c9869d26904750411a4811583af0ead7f6290a1964736f6c63430008180033",
  "linkReferences": {},
  "deployedLinkReferences": {}
}