{
  "_format": "hh-sol-artifact-1",
  "contractName": "MockERC20",
  "sourceName": "contracts/MockERC20.sol",
  "abi": [
    {
      "inputs": [
        {
          "internalType": "string",
          "name": "name",
          "type": "string"
        },
        {
          "internalType": "string",
          "name": "symbol",
          "type": "string"
        }
      ],
      "stateMutability": "nonpayable",
      "type": "constructor"
    },
    {
      "inputs": [
        {
          "internalType": "address",
          "name": "spender",
          "type": "address"
        },
        {
          "internalType": "uint256",
          "name": "allowance",
          "type": "uint256"
        },
        {
          "internalType": "uint256",
          "name": "needed",
          "type": "uint256"
        }
      ],
      "name": "ERC20InsufficientAllowance",
      "type": "error"
    },
    {
      "inputs": [
        {
          "internalType": "address",
          "name": "sender",
          "type": "address"
        },
        {
          "internalType": "uint256",
          "name": "balance",
          "type": "uint256"
        },
        {
          "internalType": "uint256",
          "name": "needed",
          "type": "uint256"
        }
      ],
      "name": "ERC20InsufficientBalance",
      "type": "error"
    },
    {
      "inputs": [
        {
          "internalType": "address",
          "name": "approver",
          "type": "address"
        }
      ],
      "name": "ERC20InvalidApprover",
      "type": "error"
    },
    {
      "inputs": [
        {
          "internalType": "address",
          "name": "receiver",
          "type": "address"
        }
      ],
      "name": "ERC20InvalidReceiver",
      "type": "error"
    },
    {
      "inputs": [
        {
          "internalType": "address",
          "name": "sender",
          "type": "address"
        }
      ],
      "name": "ERC20InvalidSender",
      "type": "error"
    },
    {
      "inputs": [
        {
          "internalType": "address",
          "name": "spender",
          "type": "address"
        }
      ],
      "name": "ERC20InvalidSpender",
      "type": "error"
    },
    {
      "inputs": [
        {
          "internalType": "address",
          "name": "owner",
          "type": "address"
        }
      ],
      "name": "OwnableInvalidOwner",
      "type": "error"
    },
    {
      "inputs": [
        {
          "internalType": "address",
          "name": "account",
          "type": "address"
        }
      ],
      "name": "OwnableUnauthorizedAccount",
      "type": "error"
    },
    {
      "anonymous": false,
      "inputs": [
        {
          "indexed": true,
          "internalType": "address",
          "name": "owner",
          "type": "address"
        },
        {
          "indexed": true,
          "internalType": "address",
          "name": "spender",
          "type": "address"
        },
        {
          "indexed": false,
          "internalType": "uint256",
          "name": "value",
          "type": "uint256"
        }
      ],
      "name": "Approval",
      "type": "event"
    },
    {
      "anonymous": false,
      "inputs": [
        {
          "indexed": true,
          "internalType": "address",
          "name": "previousOwner",
          "type": "address"
        },
        {
          "indexed": true,
          "internalType": "address",
          "name": "newOwner",
          "type": "address"
        }
      ],
      "name": "OwnershipTransferred",
      "type": "event"
    },
    {
      "anonymous": false,
      "inputs": [
        {
          "indexed": true,
          "internalType": "address",
          "name": "from",
          "type": "address"
        },
        {
          "indexed": true,
          "internalType": "address",
          "name": "to",
          "type": "address"
        },
        {
          "indexed": false,
          "internalType": "uint256",
          "name": "value",
          "type": "uint256"
        }
      ],
      "name": "Transfer",
      "type": "event"
    },
    {
      "inputs": [
        {
          "internalType": "address",
          "name": "owner",
          "type": "address"
        },
        {
          "internalType": "address",
          "name": "spender",
          "type": "address"
        }
      ],
      "name": "allowance",
      "outputs": [
        {
          "internalType": "uint256",
          "name": "",
          "type": "uint256"
        }
      ],
      "stateMutability": "view",
      "type": "function"
    },
    {
      "inputs": [
        {
          "internalType": "address",
          "name": "spender",
          "type": "address"
        },
        {
          "internalType": "uint256",
          "name": "value",
          "type": "uint256"
        }
      ],
      "name": "approve",
      "outputs": [
        {
          "internalType": "bool",
          "name": "",
          "type": "bool"
        }
      ],
      "stateMutability": "nonpayable",
      "type": "function"
    },
    {
      "inputs": [
        {
          "internalType": "address",
          "name": "account",
          "type": "address"
        }
      ],
      "name": "balanceOf",
      "outputs": [
        {
          "internalType": "uint256",
          "name": "",
          "type": "uint256"
        }
      ],
      "stateMutability": "view",
      "type": "function"
    },
    {
      "inputs": [],
      "name": "decimals",
      "outputs": [
        {
          "internalType": "uint8",
          "name": "",
          "type": "uint8"
        }
      ],
      "stateMutability": "view",
      "type": "function"
    },
    {
      "inputs": [
        {
          "internalType": "address",
          "name": "to",
          "type": "address"
        },
        {
          "internalType": "uint256",
          "name": "amount",
          "type": "uint256"
        }
      ],
      "name": "mint",
      "outputs": [],
      "stateMutability": "nonpayable",
      "type": "function"
    },
    {
      "inputs": [],
      "name": "name",
      "outputs": [
        {
          "internalType": "string",
          "name": "",
          "type": "string"
        }
      ],
      "stateMutability": "view",
      "type": "function"
    },
    {
      "inputs": [],
      "name": "owner",
      "outputs": [
        {
          "internalType": "address",
          "name": "",
          "type": "address"
        }
      ],
      "stateMutability": "view",
      "type": "function"
    },
    {
      "inputs": [],
      "name": "renounceOwnership",
      "outputs": [],
      "stateMutability": "nonpayable",
      "type": "function"
    },
    {
      "inputs": [],
      "name": "symbol",
      "outputs": [
        {
          "internalType": "string",
          "name": "",
          "type": "string"
        }
      ],
      "stateMutability": "view",
      "type": "function"
    },
    {
      "inputs": [],
      "name": "totalSupply",
      "outputs": [
        {
          "internalType": "uint256",
          "name": "",
          "type": "uint256"
        }
      ],
      "stateMutability": "view",
      "type": "function"
    },
    {
      "inputs": [
        {
          "internalType": "address",
          "name": "to",
          "type": "address"
        },
        {
          "internalType": "uint256",
          "name": "value",
          "type": "uint256"
        }
      ],
      "name": "transfer",
      "outputs": [
        {
          "internalType": "bool",
          "name": "",
          "type": "bool"
        }
      ],
      "stateMutability": "nonpayable",
      "type": "function"
    },
    {
      "inputs": [
        {
          "internalType": "address",
          "name": "from",
          "type": "address"
        },
        {
          "internalType": "address",
          "name": "to",
          "type": "address"
        },
        {
          "internalType": "uint256",
          "name": "value",
          "type": "uint256"
        }
      ],
      "name": "transferFrom",
      "outputs": [
        {
          "internalType": "bool",
          "name": "",
          "type": "bool"
        }
      ],
      "stateMutability": "nonpayable",
      "type": "function"
    },
    {
      "inputs": [
        {
          "internalType": "address",
          "name": "newOwner",
          "type": "address"
        }
      ],
      "name": "transferOwnership",
      "outputs": [],
      "stateMutability": "nonpayable",
      "type": "function"
    }
  ],
  "bytecode": "0x60806040523480156200001157600080fd5b5060405162001cba38038062001cba833981810160405281019062000037919062000621565b33828281600390816200004b9190620008f1565b5080600490816200005d9190620008f1565b505050600073ffffffffffffffffffffffffffffffffffffffff168173ffffffffffffffffffffffffffffffffffffffff1603620000d55760006040517f1e4fbdf7000000000000000000000000000000000000000000000000000000008152600401620000cc919062000a1d565b60405180910390fd5b620000e6816200010b60201b60201c565b50620001033369d3c21bcecceda1000000620001d160201b60201c565b505062000b0f565b6000600560009054906101000a900473ffffffffffffffffffffffffffffffffffffffff16905081600560006101000a81548173ffffffffffffffffffffffffffffffffffffffff021916908373ffffffffffffffffffffffffffffffffffffffff1602179055508173ffffffffffffffffffffffffffffffffffffffff168173ffffffffffffffffffffffffffffffffffffffff167f8be0079c531659141344cd1fd0a4f28419497f9722a3daafe3b4186f6b6457e060405160405180910390a35050565b600073ffffffffffffffffffffffffffffffffffffffff168273ffffffffffffffffffffffffffffffffffffffff1603620002465760006040517fec442f050000000000000000000000000000000000000000000000000000000081526004016200023d919062000a1d565b60405180910390fd5b6200025a600083836200025e60201b60201c565b5050565b600073ffffffffffffffffffffffffffffffffffffffff168373ffffffffffffffffffffffffffffffffffffffff1603620002b4578060026000828254620002a7919062000a69565b925050819055506200038a565b60008060008573ffffffffffffffffffffffffffffffffffffffff1673ffffffffffffffffffffffffffffffffffffffff1681526020019081526020016000205490508181101562000343578381836040517fe450d38c0000000000000000000000000000000000000000000000000000000081526004016200033a9392919062000ab5565b60405180910390fd5b8181036000808673ffffffffffffffffffffffffffffffffffffffff1673ffffffffffffffffffffffffffffffffffffffff16815260200190815260200160002081905550505b600073ffffffffffffffffffffffffffffffffffffffff168273ffffffffffffffffffffffffffffffffffffffff1603620003d5578060026000828254039250508190555062000422565b806000808473ffffffffffffffffffffffffffffffffffffffff1673ffffffffffffffffffffffffffffffffffffffff168152602001908152602001600020600082825401925050819055505b8173ffffffffffffffffffffffffffffffffffffffff168373ffffffffffffffffffffffffffffffffffffffff167fddf252ad1be2c89b69c2b068fc378daa952ba7f163c4a11628f55a4df523b3ef8360405162000481919062000af2565b60405180910390a3505050565b6000604051905090565b600080fd5b600080fd5b600080fd5b600080fd5b6000601f19601f8301169050919050565b7f4e487b7100000000000000000000000000000000000000000000000000000000600052604160045260246000fd5b620004f782620004ac565b810181811067ffffffffffffffff82111715620005195762000518620004bd565b5b80604052505050565b60006200052e6200048e565b90506200053c8282620004ec565b919050565b600067ffffffffffffffff8211156200055f576200055e620004bd565b5b6200056a82620004ac565b9050602081019050919050565b60005b83811015620005975780820151818401526020810190506200057a565b60008484015250505050565b6000620005ba620005b48462000541565b62000522565b905082815260208101848484011115620005d957620005d8620004a7565b5b620005e684828562000577565b509392505050565b600082601f830112620006065762000605620004a2565b5b815162000618848260208601620005a3565b91505092915050565b600080604083850312156200063b576200063a62000498565b5b600083015167ffffffffffffffff8111156200065c576200065b6200049d565b5b6200066a85828601620005ee565b925050602083015167ffffffffffffffff8111156200068e576200068d6200049d565b5b6200069c85828601620005ee565b9150509250929050565b600081519050919050565b7f4e487b7100000000000000000000000000000000000000000000000000000000600052602260045260246000fd5b60006002820490506001821680620006f957607f821691505b6020821081036200070f576200070e620006b1565b5b50919050565b60008190508160005260206000209050919050565b60006020601f8301049050919050565b600082821b905092915050565b600060088302620007797fffffffffffffffffffffffffffffffffffffffffffffffffffffffffffffffff826200073a565b6200078586836200073a565b95508019841693508086168417925050509392505050565b6000819050919050565b6000819050919050565b6000620007d2620007cc620007c6846200079d565b620007a7565b6200079d565b9050919050565b6000819050919050565b620007ee83620007b1565b62000806620007fd82620007d9565b84845462000747565b825550505050565b600090565b6200081d6200080e565b6200082a818484620007e3565b505050565b5b8181101562000852576200084660008262000813565b60018101905062000830565b5050565b601f821115620008a1576200086b8162000715565b62000876846200072a565b8101602085101562000886578190505b6200089e62000895856200072a565b8301826200082f565b50505b505050565b600082821c905092915050565b6000620008c660001984600802620008a6565b1980831691505092915050565b6000620008e18383620008b3565b9150826002028217905092915050565b620008fc82620006a6565b67ffffffffffffffff811115620009185762000917620004bd565b5b620009248254620006e0565b6200093182828562000856565b600060209050601f83116001811462000969576000841562000954578287015190505b620009608582620008d3565b865550620009d0565b601f198416620009798662000715565b60005b82811015620009a3578489015182556001820191506020850194506020810190506200097c565b86831015620009c35784890151620009bf601f891682620008b3565b8355505b6001600288020188555050505b505050505050565b600073ffffffffffffffffffffffffffffffffffffffff82169050919050565b600062000a0582620009d8565b9050919050565b62000a1781620009f8565b82525050565b600060208201905062000a34600083018462000a0c565b92915050565b7f4e487b7100000000000000000000000000000000000000000000000000000000600052601160045260246000fd5b600062000a76826200079d565b915062000a83836200079d565b925082820190508082111562000a9e5762000a9d62000a3a565b5b92915050565b62000aaf816200079d565b82525050565b600060608201905062000acc600083018662000a0c565b62000adb602083018562000aa4565b62000aea604083018462000aa4565b949350505050565b600060208201905062000b09600083018462000aa4565b92915050565b61119b8062000b1f6000396000f3fe608060405234801561001057600080fd5b50600436106100cf5760003560e01c806370a082311161008c57806395d89b411161006657806395d89b4114610202578063a9059cbb14610220578063dd62ed3e14610250578063f2fde38b14610280576100cf565b806370a08231146101aa578063715018a6146101da5780638da5cb5b146101e4576100cf565b806306fdde03146100d4578063095ea7b3146100f257806318160ddd1461012257806323b872dd14610140578063313ce5671461017057806340c10f191461018e575b600080fd5b6100dc61029c565b6040516100e99190610def565b60405180910390f35b61010c60048036038101906101079190610eaa565b61032e565b6040516101199190610f05565b60405180910390f35b61012a610351565b6040516101379190610f2f565b60405180910390f35b61015a60048036038101906101559190610f4a565b61035b565b6040516101679190610f05565b60405180910390f35b61017861038a565b6040516101859190610fb9565b60405180910390f35b6101a860048036038101906101a39190610eaa565b610393565b005b6101c460048036038101906101bf9190610fd4565b6103a9565b6040516101d19190610f2f565b60405180910390f35b6101e26103f1565b005b6101ec610405565b6040516101f99190611010565b60405180910390f35b61020a61042f565b6040516102179190610def565b60405180910390f35b61023a60048036038101906102359190610eaa565b6104c1565b6040516102479190610f05565b60405180910390f35b61026a6004803603810190610265919061102b565b6104e4565b6040516102779190610f2f565b60405180910390f35b61029a60048036038101906102959190610fd4565b61056b565b005b6060600380546102ab9061109a565b80601f01602080910402602001604051908101604052809291908181526020018280546102d79061109a565b80156103245780601f106102f957610100808354040283529160200191610324565b820191906000526020600020905b81548152906001019060200180831161030757829003601f168201915b5050505050905090565b6000806103396105f1565b90506103468185856105f9565b600191505092915050565b6000600254905090565b6000806103666105f1565b905061037385828561060b565b61037e8585856106a0565b60019150509392505050565b60006012905090565b61039b610794565b6103a5828261081b565b5050565b60008060008373ffffffffffffffffffffffffffffffffffffffff1673ffffffffffffffffffffffffffffffffffffffff168152602001908152602001600020549050919050565b6103f9610794565b610403600061089d565b565b6000600560009054906101000a900473ffffffffffffffffffffffffffffffffffffffff16905090565b60606004805461043e9061109a565b80601f016020809104026020016040519081016040528092919081815260200182805461046a9061109a565b80156104b75780601f1061048c576101008083540402835291602001916104b7565b820191906000526020600020905b81548152906001019060200180831161049a57829003601f168201915b5050505050905090565b6000806104cc6105f1565b90506104d98185856106a0565b600191505092915050565b6000600160008473ffffffffffffffffffffffffffffffffffffffff1673ffffffffffffffffffffffffffffffffffffffff16815260200190815260200160002060008373ffffffffffffffffffffffffffffffffffffffff1673ffffffffffffffffffffffffffffffffffffffff16815260200190815260200160002054905092915050565b610573610794565b600073ffffffffffffffffffffffffffffffffffffffff168173ffffffffffffffffffffffffffffffffffffffff16036105e55760006040517f1e4fbdf70000000000000000000000000000000000000000000000000000000081526004016105dc9190611010565b60405180910390fd5b6105ee8161089d565b50565b600033905090565b6106068383836001610963565b505050565b600061061784846104e4565b90507fffffffffffffffffffffffffffffffffffffffffffffffffffffffffffffffff81101561069a578181101561068a578281836040517ffb8f41b2000000000000000000000000000000000000000000000000000000008152600401610681939291906110cb565b60405180910390fd5b61069984848484036000610963565b5b50505050565b600073ffffffffffffffffffffffffffffffffffffffff168373ffffffffffffffffffffffffffffffffffffffff16036107125760006040517f96c6fd1e0000000000000000000000000000000000000000000000000000000081526004016107099190611010565b60405180910390fd5b600073ffffffffffffffffffffffffffffffffffffffff168273ffffffffffffffffffffffffffffffffffffffff16036107845760006040517fec442f0500000000000000000000000000000000000000000000000000000000815260040161077b9190611010565b60405180910390fd5b61078f838383610b3a565b505050565b61079c6105f1565b73ffffffffffffffffffffffffffffffffffffffff166107ba610405565b73ffffffffffffffffffffffffffffffffffffffff1614610819576107dd6105f1565b6040517f118cdaa70000000000000000000000000000000000000000000000000000000081526004016108109190611010565b60405180910390fd5b565b600073ffffffffffffffffffffffffffffffffffffffff168273ffffffffffffffffffffffffffffffffffffffff160361088d5760006040517fec442f050000000000000000000000000000000000000000000000000000000081526004016108849190611010565b60405180910390fd5b61089960008383610b3a565b5050565b6000600560009054906101000a900473ffffffffffffffffffffffffffffffffffffffff16905081600560006101000a81548173ffffffffffffffffffffffffffffffffffffffff021916908373ffffffffffffffffffffffffffffffffffffffff1602179055508173ffffffffffffffffffffffffffffffffffffffff168173ffffffffffffffffffffffffffffffffffffffff167f8be0079c531659141344cd1fd0a4f28419497f9722a3daafe3b4186f6b6457e060405160405180910390a35050565b600073ffffffffffffffffffffffffffffffffffffffff168473ffffffffffffffffffffffffffffffffffffffff16036109d55760006040517fe602df050000000000000000000000000000000000000000000000000000000081526004016109cc9190611010565b60405180910390fd5b600073ffffffffffffffffffffffffffffffffffffffff168373ffffffffffffffffffffffffffffffffffffffff1603610a475760006040517f94280d62000000000000000000000000000000000000000000000000000000008152600401610a3e9190611010565b60405180910390fd5b81600160008673ffffffffffffffffffffffffffffffffffffffff1673ffffffffffffffffffffffffffffffffffffffff16815260200190815260200160002060008573ffffffffffffffffffffffffffffffffffffffff1673ffffffffffffffffffffffffffffffffffffffff168152602001908152602001600020819055508015610b34578273ffffffffffffffffffffffffffffffffffffffff168473ffffffffffffffffffffffffffffffffffffffff167f8c5be1e5ebec7d5bd14f71427d1e84f3dd0314c0f7b2291e5b200ac8c7c3b92584604051610b2b9190610f2f565b60405180910390a35b50505050565b600073ffffffffffffffffffffffffffffffffffffffff168373ffffffffffffffffffffffffffffffffffffffff1603610b8c578060026000828254610b809190611131565b92505081905550610c5f565b60008060008573ffffffffffffffffffffffffffffffffffffffff1673ffffffffffffffffffffffffffffffffffffffff16815260200190815260200160002054905081811015610c18578381836040517fe450d38c000000000000000000000000000000000000000000000000000000008152600401610c0f939291906110cb565b60405180910390fd5b8181036000808673ffffffffffffffffffffffffffffffffffffffff1673ffffffffffffffffffffffffffffffffffffffff16815260200190815260200160002081905550505b600073ffffffffffffffffffffffffffffffffffffffff168273ffffffffffffffffffffffffffffffffffffffff1603610ca85780600260008282540392505081905550610cf5565b806000808473ffffffffffffffffffffffffffffffffffffffff1673ffffffffffffffffffffffffffffffffffffffff168152602001908152602001600020600082825401925050819055505b8173ffffffffffffffffffffffffffffffffffffffff168373ffffffffffffffffffffffffffffffffffffffff167fddf252ad1be2c89b69c2b068fc378daa952ba7f163c4a11628f55a4df523b3ef83604051610d529190610f2f565b60405180910390a3505050565b600081519050919050565b600082825260208201905092915050565b60005b83811015610d99578082015181840152602081019050610d7e565b60008484015250505050565b6000601f19601f8301169050919050565b6000610dc182610d5f565b610dcb8185610d6a565b9350610ddb818560208601610d7b565b610de481610da5565b840191505092915050565b60006020820190508181036000830152610e098184610db6565b905092915050565b600080fd5b600073ffffffffffffffffffffffffffffffffffffffff82169050919050565b6000610e4182610e16565b9050919050565b610e5181610e36565b8114610e5c57600080fd5b50565b600081359050610e6e81610e48565b92915050565b6000819050919050565b610e8781610e74565b8114610e9257600080fd5b50565b600081359050610ea481610e7e565b92915050565b60008060408385031215610ec157610ec0610e11565b5b6000610ecf85828601610e5f565b9250506020610ee085828601610e95565b9150509250929050565b60008115159050919050565b610eff81610eea565b82525050565b6000602082019050610f1a6000830184610ef6565b92915050565b610f2981610e74565b82525050565b6000602082019050610f446000830184610f20565b92915050565b600080600060608486031215610f6357610f62610e11565b5b6000610f7186828701610e5f565b9350506020610f8286828701610e5f565b9250506040610f9386828701610e95565b9150509250925092565b600060ff82169050919050565b610fb381610f9d565b82525050565b6000602082019050610fce6000830184610faa565b92915050565b600060208284031215610fea57610fe9610e11565b5b6000610ff884828501610e5f565b91505092915050565b61100a81610e36565b82525050565b60006020820190506110256000830184611001565b92915050565b6000806040838503121561104257611041610e11565b5b600061105085828601610e5f565b925050602061106185828601610e5f565b9150509250929050565b7f4e487b7100000000000000000000000000000000000000000000000000000000600052602260045260246000fd5b600060028204905060018216806110b257607f821691505b6020821081036110c5576110c461106b565b5b50919050565b60006060820190506110e06000830186611001565b6110ed6020830185610f20565b6110fa6040830184610f20565b949350505050565b7f4e487b7100000000000000000000000000000000000000000000000000000000600052601160045260246000fd5b600061113c82610e74565b915061114783610e74565b925082820190508082111561115f5761115e611102565b5b9291505056fea26469706673582212202f80ddbb06be7999fc05d1ad5e96dc9b5fac780adbf49680d89c7b0426f8ee0264736f6c63430008180033",
  "linkReferences": {},
  "deployedLinkReferences": {}
}