{
  "_format": "hh-sol-artifact-1",
  "contractName": "AttestationService",
  "sourceName": "contracts/AttestationService.sol",
  "abi": [
    {
      "inputs": [],
      "stateMutability": "nonpayable",
      "type": "constructor"
    },
    {
      "inputs": [
        {
          "internalType": "address",
          "name": "owner",
          "type": "address"
        }
      ],
      "name": "OwnableInvalidOwner",
      "type": "error"
    },
    {
      "inputs": [
        {
          "internalType": "address",
          "name": "account",
          "type": "address"
        }
      ],
      "name": "OwnableUnauthorizedAccount",
      "type": "error"
    },
    {
      "anonymous": false,
      "inputs": [
        {
          "indexed": true,
          "internalType": "address",
          "name": "attestor",
          "type": "address"
        },
        {
          "indexed": true,
          "internalType": "address",
          "name": "recipient",
          "type": "address"
        },
        {
          "indexed": false,
          "internalType": "string",
          "name": "attestationType",
          "type": "string"
        },
        {
          "indexed": false,
          "internalType": "bytes32",
          "name": "attestationHash",
          "type": "bytes32"
        }
      ],
      "name": "AttestationIssued",
      "type": "event"
    },
    {
      "anonymous": false,
      "inputs": [
        {
          "indexed": true,
          "internalType": "address",
          "name": "attestor",
          "type": "address"
        }
      ],
      "name": "AttestorAdded",
      "type": "event"
    },
    {
      "anonymous": false,
      "inputs": [
        {
          "indexed": true,
          "internalType": "address",
          "name": "attestor",
          "type": "address"
        }
      ],
      "name": "AttestorRemoved",
      "type": "event"
    },
    {
      "anonymous": false,
      "inputs": [
        {
          "indexed": true,
          "internalType": "address",
          "name": "previousOwner",
          "type": "address"
        },
        {
          "indexed": true,
          "internalType": "address",
          "name": "newOwner",
          "type": "address"
        }
      ],
      "name": "OwnershipTransferred",
      "type": "event"
    },
    {
      "inputs": [
        {
          "internalType": "address",
          "name": "attestor",
          "type": "address"
        }
      ],
      "name": "addAttestor",
      "outputs": [],
      "stateMutability": "nonpayable",
      "type": "function"
    },
    {
      "inputs": [
        {
          "internalType": "address",
          "name": "user",
          "type": "address"
        },
        {
          "internalType": "string",
          "name": "attestationType",
          "type": "string"
        }
      ],
      "name": "hasAttestationType",
      "outputs": [
        {
          "internalType": "bool",
          "name": "",
          "type": "bool"
        }
      ],
      "stateMutability": "view",
      "type": "function"
    },
    {
      "inputs": [
        {
          "internalType": "address",
          "name": "",
          "type": "address"
        }
      ],
      "name": "isAttestor",
      "outputs": [
        {
          "internalType": "bool",
          "name": "",
          "type": "bool"
        }
      ],
      "stateMutability": "view",
      "type": "function"
    },
    {
      "inputs": [
        {
          "internalType": "address",
          "name": "recipient",
          "type": "address"
        },
        {
          "internalType": "string",
          "name": "attestationType",
          "type": "string"
        },
        {
          "internalType": "bytes32",
          "name": "attestationHash",
          "type": "bytes32"
        }
      ],
      "name": "issueAttestation",
      "outputs": [],
      "stateMutability": "nonpayable",
      "type": "function"
    },
    {
      "inputs": [],
      "name": "owner",
      "outputs": [
        {
          "internalType": "address",
          "name": "",
          "type": "address"
        }
      ],
      "stateMutability": "view",
      "type": "function"
    },
    {
      "inputs": [
        {
          "internalType": "address",
          "name": "attestor",
          "type": "address"
        }
      ],
      "name": "removeAttestor",
      "outputs": [],
      "stateMutability": "nonpayable",
      "type": "function"
    },
    {
      "inputs": [],
      "name": "renounceOwnership",
      "outputs": [],
      "stateMutability": "nonpayable",
      "type": "function"
    },
    {
      "inputs": [
        {
          "internalType": "address",
          "name": "newOwner",
          "type": "address"
        }
      ],
      "name": "transferOwnership",
      "outputs": [],
      "stateMutability": "nonpayable",
      "type": "function"
    }
  ],
  "bytecode": "0x608060405234801561001057600080fd5b5033600073ffffffffffffffffffffffffffffffffffffffff168173ffffffffffffffffffffffffffffffffffffffff16036100845760006040517f1e4fbdf700000000000000000000000000000000000000000000000000000000815260040161007b919061019e565b60405180910390fd5b6100938161009960201b60201c565b506101b9565b60008060009054906101000a900473ffffffffffffffffffffffffffffffffffffffff169050816000806101000a81548173ffffffffffffffffffffffffffffffffffffffff021916908373ffffffffffffffffffffffffffffffffffffffff1602179055508173ffffffffffffffffffffffffffffffffffffffff168173ffffffffffffffffffffffffffffffffffffffff167f8be0079c531659141344cd1fd0a4f28419497f9722a3daafe3b4186f6b6457e060405160405180910390a35050565b600073ffffffffffffffffffffffffffffffffffffffff82169050919050565b60006101888261015d565b9050919050565b6101988161017d565b82525050565b60006020820190506101b3600083018461018f565b92915050565b6110c4806101c86000396000f3fe608060405234801561001057600080fd5b50600436106100885760003560e01c8063b39120231161005b578063b391202314610101578063e0cae6351461011d578063f2fde38b14610139578063f7a7c6721461015557610088565b80632e2f4e241461008d578063715018a6146100bd57806381fcce26146100c75780638da5cb5b146100e3575b600080fd5b6100a760048036038101906100a29190610ab6565b610185565b6040516100b49190610afe565b60405180910390f35b6100c56101a5565b005b6100e160048036038101906100dc9190610bb4565b6101b9565b005b6100eb6104e3565b6040516100f89190610c37565b60405180910390f35b61011b60048036038101906101169190610ab6565b61050c565b005b61013760048036038101906101329190610ab6565b61063e565b005b610153600480360381019061014e9190610ab6565b6107df565b005b61016f600480360381019061016a9190610c52565b610865565b60405161017c9190610afe565b60405180910390f35b60016020528060005260406000206000915054906101000a900460ff1681565b6101ad6108fb565b6101b76000610982565b565b600160003373ffffffffffffffffffffffffffffffffffffffff1673ffffffffffffffffffffffffffffffffffffffff16815260200190815260200160002060009054906101000a900460ff16610245576040517f08c379a000000000000000000000000000000000000000000000000000000000815260040161023c90610d0f565b60405180910390fd5b600073ffffffffffffffffffffffffffffffffffffffff168473ffffffffffffffffffffffffffffffffffffffff16036102b4576040517f08c379a00000000000000000000000000000000000000000000000000000000081526004016102ab90610d7b565b60405180910390fd5b600083839050116102fa576040517f08c379a00000000000000000000000000000000000000000000000000000000081526004016102f190610de7565b60405180910390fd5b6000801b810361033f576040517f08c379a000000000000000000000000000000000000000000000000000000000815260040161033690610e53565b60405180910390fd5b60008383604051602001610354929190610eb2565b604051602081830303815290604052805190602001209050600260008673ffffffffffffffffffffffffffffffffffffffff1673ffffffffffffffffffffffffffffffffffffffff168152602001908152602001600020600082815260200190815260200160002060009054906101000a900460ff161561040a576040517f08c379a000000000000000000000000000000000000000000000000000000000815260040161040190610f17565b60405180910390fd5b6001600260008773ffffffffffffffffffffffffffffffffffffffff1673ffffffffffffffffffffffffffffffffffffffff168152602001908152602001600020600083815260200190815260200160002060006101000a81548160ff0219169083151502179055508473ffffffffffffffffffffffffffffffffffffffff163373ffffffffffffffffffffffffffffffffffffffff167f5c43defc1fedb32c919557053fd49d6afb884b37cf7e4107d085be6fa48f66158686866040516104d493929190610f84565b60405180910390a35050505050565b60008060009054906101000a900473ffffffffffffffffffffffffffffffffffffffff16905090565b6105146108fb565b600160008273ffffffffffffffffffffffffffffffffffffffff1673ffffffffffffffffffffffffffffffffffffffff16815260200190815260200160002060009054906101000a900460ff166105a0576040517f08c379a000000000000000000000000000000000000000000000000000000000815260040161059790610d0f565b60405180910390fd5b6000600160008373ffffffffffffffffffffffffffffffffffffffff1673ffffffffffffffffffffffffffffffffffffffff16815260200190815260200160002060006101000a81548160ff0219169083151502179055508073ffffffffffffffffffffffffffffffffffffffff167f7b1e5155c9ac76eaa3c56fcf63a3383cd696a6fa84c49901c7ae374c0a50861260405160405180910390a250565b6106466108fb565b600073ffffffffffffffffffffffffffffffffffffffff168173ffffffffffffffffffffffffffffffffffffffff16036106b5576040517f08c379a00000000000000000000000000000000000000000000000000000000081526004016106ac90611002565b60405180910390fd5b600160008273ffffffffffffffffffffffffffffffffffffffff1673ffffffffffffffffffffffffffffffffffffffff16815260200190815260200160002060009054906101000a900460ff1615610742576040517f08c379a00000000000000000000000000000000000000000000000000000000081526004016107399061106e565b60405180910390fd5b60018060008373ffffffffffffffffffffffffffffffffffffffff1673ffffffffffffffffffffffffffffffffffffffff16815260200190815260200160002060006101000a81548160ff0219169083151502179055508073ffffffffffffffffffffffffffffffffffffffff167f945c4a21d3fce955d17e31fcc471734b3d754c032b3805b02fe75d89c29b2a3a60405160405180910390a250565b6107e76108fb565b600073ffffffffffffffffffffffffffffffffffffffff168173ffffffffffffffffffffffffffffffffffffffff16036108595760006040517f1e4fbdf70000000000000000000000000000000000000000000000000000000081526004016108509190610c37565b60405180910390fd5b61086281610982565b50565b600080838360405160200161087b929190610eb2565b604051602081830303815290604052805190602001209050600260008673ffffffffffffffffffffffffffffffffffffffff1673ffffffffffffffffffffffffffffffffffffffff168152602001908152602001600020600082815260200190815260200160002060009054906101000a900460ff169150509392505050565b610903610a46565b73ffffffffffffffffffffffffffffffffffffffff166109216104e3565b73ffffffffffffffffffffffffffffffffffffffff161461098057610944610a46565b6040517f118cdaa70000000000000000000000000000000000000000000000000000000081526004016109779190610c37565b60405180910390fd5b565b60008060009054906101000a900473ffffffffffffffffffffffffffffffffffffffff169050816000806101000a81548173ffffffffffffffffffffffffffffffffffffffff021916908373ffffffffffffffffffffffffffffffffffffffff1602179055508173ffffffffffffffffffffffffffffffffffffffff168173ffffffffffffffffffffffffffffffffffffffff167f8be0079c531659141344cd1fd0a4f28419497f9722a3daafe3b4186f6b6457e060405160405180910390a35050565b600033905090565b600080fd5b600080fd5b600073ffffffffffffffffffffffffffffffffffffffff82169050919050565b6000610a8382610a58565b9050919050565b610a9381610a78565b8114610a9e57600080fd5b50565b600081359050610ab081610a8a565b92915050565b600060208284031215610acc57610acb610a4e565b5b6000610ada84828501610aa1565b91505092915050565b60008115159050919050565b610af881610ae3565b82525050565b6000602082019050610b136000830184610aef565b92915050565b600080fd5b600080fd5b600080fd5b60008083601f840112610b3e57610b3d610b19565b5b8235905067ffffffffffffffff811115610b5b57610b5a610b1e565b5b602083019150836001820283011115610b7757610b76610b23565b5b9250929050565b6000819050919050565b610b9181610b7e565b8114610b9c57600080fd5b50565b600081359050610bae81610b88565b92915050565b60008060008060608587031215610bce57610bcd610a4e565b5b6000610bdc87828801610aa1565b945050602085013567ffffffffffffffff811115610bfd57610bfc610a53565b5b610c0987828801610b28565b93509350506040610c1c87828801610b9f565b91505092959194509250565b610c3181610a78565b82525050565b6000602082019050610c4c6000830184610c28565b92915050565b600080600060408486031215610c6b57610c6a610a4e565b5b6000610c7986828701610aa1565b935050602084013567ffffffffffffffff811115610c9a57610c99610a53565b5b610ca686828701610b28565b92509250509250925092565b600082825260208201905092915050565b7f4e6f7420616e206174746573746f720000000000000000000000000000000000600082015250565b6000610cf9600f83610cb2565b9150610d0482610cc3565b602082019050919050565b60006020820190508181036000830152610d2881610cec565b9050919050565b7f496e76616c696420726563697069656e74000000000000000000000000000000600082015250565b6000610d65601183610cb2565b9150610d7082610d2f565b602082019050919050565b60006020820190508181036000830152610d9481610d58565b9050919050565b7f456d707479206174746573746174696f6e547970650000000000000000000000600082015250565b6000610dd1601583610cb2565b9150610ddc82610d9b565b602082019050919050565b60006020820190508181036000830152610e0081610dc4565b9050919050565b7f496e76616c6964206174746573746174696f6e48617368000000000000000000600082015250565b6000610e3d601783610cb2565b9150610e4882610e07565b602082019050919050565b60006020820190508181036000830152610e6c81610e30565b9050919050565b600081905092915050565b82818337600083830152505050565b6000610e998385610e73565b9350610ea6838584610e7e565b82840190509392505050565b6000610ebf828486610e8d565b91508190509392505050565b7f4174746573746174696f6e20616c726561647920657869737473000000000000600082015250565b6000610f01601a83610cb2565b9150610f0c82610ecb565b602082019050919050565b60006020820190508181036000830152610f3081610ef4565b9050919050565b6000601f19601f8301169050919050565b6000610f548385610cb2565b9350610f61838584610e7e565b610f6a83610f37565b840190509392505050565b610f7e81610b7e565b82525050565b60006040820190508181036000830152610f9f818587610f48565b9050610fae6020830184610f75565b949350505050565b7f496e76616c6964206174746573746f7220616464726573730000000000000000600082015250565b6000610fec601883610cb2565b9150610ff782610fb6565b602082019050919050565b6000602082019050818103600083015261101b81610fdf565b9050919050565b7f416c726561647920616e206174746573746f7200000000000000000000000000600082015250565b6000611058601383610cb2565b915061106382611022565b602082019050919050565b600060208201905081810360008301526110878161104b565b905091905056fea26469706673582212201481e41366f34a06e619dcb584d82df8d9d2ddf2963cdc24c5284443ef8d7b6664736f6c63430008180033",
  "linkReferences": {},
  "deployedLinkReferences": {}
}